S0140000496F542053656375726974792E737265638C
S11300000C9434000C9451000C9451000C94510045
S11300100C9451000C9451000C9451000C94510018
S11300200C9451000C9451000C9451000C94510008
S11300300C9451000C9451000C9451000C945100F8
S11300400C9451000C9451000C9451000C945100E8
S11300500C9451000C9451000C9451000C945100D8
S11300600C9451000C94510011241FBECFEFD8E022
S1130070DEBFCDBF11E0A0E0B1E0E8EBFEE002C0DE
S113008005900D92AA34B107D9F721E0AAE4B1E0B2
S113009001C01D92AA35B207E1F70E94A9030C948E
S11300A05A070C9400009BB19F709BB99BB1282FF9
S11300B0207F922B9BB995B1926095B935E03A9522
S11300C0F1F7000095B19D7F95B9EFE8F1E0319724
S11300D0F1F700C000009BB19F709BB92BB1F0E118
S11300E08F9FC0011124822B8BB985B1826085B9A1
S11300F035E03A95F1F7000085B18D7F85B98FE839
S113010091E00197F1F700C00000089595B19E7F3A
S113011095B90E945300089595B1916095B90E94D4
S11301205300089581E00E9486008FE89AE10197C8
S1130130F1F700C0000008958AB1806F8AB984B1D4
S1130140836084B985B18D7F85B98FE39FE1019781
S1130150F1F700C0000083E30E94860082E30E945E
S1130160860088E20E9486008CE00E94860086E079
S11301700E9486000E9492000895CF93DF9300D0DE
S113018000D0CDB7DEB790E8998390EC9A8394E9D8
S11301909B8394ED9C83E62FF0E0319721E030E0DF
S11301A02C0F3D1FE20FF31F9081890F81500E9495
S11301B086008FE891E00197F1F700C000000F90EE
S11301C00F900F900F90DF91CF9108950F931F938D
S11301D0CF938C01C0E003C00E948C00CF5FF80174
S11301E0EC0FF11D80818111F7CFCF911F910F91F9
S11301F0089587B18E7F87B987E880937A0080EC71
S113020080937C00089587B18D7F87B987E88093B8
S11302107A0081E480937C000895EAE7F0E080812D
S11302208064808380917A0084FFFCCFEAE7F0E069
S1130230808180618083809178006091790070E092
S1130240762F6627680F711D072E000C880B990BFB
S11302500E9431050895CF92DF92EF92FF920F939F
S11302601F93CF93DF93CDB7DEB7A0970FB6F89463
S1130270DEBF0FBECDBFC82ED62EE42EF22E80E2F6
S1130280E6E0F1E0DE01119601900D928A95E1F726
S113029087E290E00E9439068C0120E030E00DC036
S11302A0D801A20FB31FE1E0F0E0EC0FFD1FE20F55
S11302B0F31F90819C932F5F3F4F2032310584F3CD
S11302C08AE3F801878F80E38C0D80A380E38D0D92
S11302D081A38EE282A380E38E0D83A380E38F0D3E
S11302E084A38DE785A38AE086A317A2C801A096FC
S11302F00FB6F894DEBF0FBECDBFDF91CF911F9133
S11303000F91FF90EF90DF90CF9008958F929F927E
S1130310AF92BF92EF92FF920F931F93CF93DF930D
S113032020E030E040E251E40E94BD0520E030E0EE
S11303304AEB52E40E948E0420E030E048E452E4A8
S11303400E94210420E030E048EC52E40E94BD0504
S11303500E9400054B015C019B01ADECBCEC0E94CA
S11303602A06AC0156954795569547955695479557
S11303703695279536952795ABE7B4E10E942A0672
S1130380FC01F695E79594013695279536952795C2
S113039036952795A5ECB0E20E942A068C011295A9
S11303A002950F7001271F7001279801ADECBCEC7A
S11303B00E942A06EC01D695C795D695C795D69581
S11303C0C795CE01880F991FCC0FDD1FCC0FDD1F01
S11303D0CC0FDD1FC80FD91FC8018C1B9D0BEC016E
S11303E09F010E942A068C0116950795169507957C
S11303F016950795C801880F991F000F111F000F4C
S1130400111F000F111F080F191FCF01801B910B23
S11304108C019A010E942A067C01F694E794F694D2
S1130420E794F694E794C701880F991FEE0CFF1C1C
S1130430EE0CFF1CEE0CFF1CE80EF91ECA018E190F
S11304409F097C01CA01880F991F440F551F440F4F
S1130450551F440F551F480F591F841A950A8C2F96
S1130460805D0E948C0080E3800F0E948C008EE2ED
S11304700E948C0080E38E0D0E948C0080E3880D26
S11304800E948C008FED0E948C00282D4E2D602F31
S11304908C2F0E942B01DF91CF911F910F91FF9020
S11304A0EF90BF90AF909F908F9008959B01AC0107
S11304B060E070EC8FE794E40E948E0420E030E06A
S11304C040E85FE30E94210420E030E44CE956E474
S11304D00E94BD0508950E94560224EE39E54BECB6
S11304E05FE30E94BD0508950E9403010E940D016F
S11304F0609352017093530180935401909355017A
S11305000E946B0260934A0170934B0180934C01EB
S113051090934D010895DF92EF92FF920F931F93F2
S1130520CF93DF93CDB7DEB768970FB6F894DEBFED
S11305300FBECDBFD82EE62EF42E88E1E6E2F1E020
S1130540DE01119601900D928A95E1F780E290E028
S11305500E9439068C0120E030E00DC0D801A20FC2
S1130560B31FE1E0F0E0EC0FFD1FE20FF31F9081F9
S11305709C932F5F3F4F2831310584F38AE3F801C0
S1130580878BD11006C080E38E0D808F87E190E0C9
S113059009C080E38D0DF801808F80E38E0D818F7B
S11305A088E190E0FC013296E00FF11F20E32F0D6B
S11305B02083FC013396E00FF11F2EE22083FC011F
S11305C03496E00FF11F20E32083FC013596E00F01
S11305D0F11F2083FC013696E00FF11F2DE72083E5
S11305E0FC013796E00FF11F2AE020830896F801FA
S11305F0E80FF91F1082C80168960FB6F894DEBFA1
S11306000FBECDBFDF91CF911F910F91FF90EF905F
S1130610DF900895CF92DF92EF92FF920F931F9392
S1130620CF93DF930E9400056B017C019B01ADEC2D
S1130630BCEC0E942A06FC01F695E795F695E79531
S1130640F695E7953695279536952795ABE7B4E16A
S11306500E942A06AC01569547959A01ADECBCEC74
S11306600E942A06EC01D695C795D695C795D695CE
S1130670C795CE01880F991FCC0FDD1FCC0FDD1F4E
S1130680CC0FDD1FC80FD91FCA018C1B9D0BEC01B9
S11306909F010E942A068C011695079516950795C9
S11306A016950795C801880F991F000F111F000F99
S11306B0111F000F111F080F191FCF01801B910B71
S11306C08C01CF01880F991FEE0FFF1FEE0FFF1F44
S11306D0EE0FFF1FE80FF91FCE1ADF0A8C2F805D83
S11306E00E948C0080E3800F0E948C0080E38C0DBC
S11306F00E948C004C2D602F8C2F0E948B02DF9166
S1130700CF911F910F91FF90EF90DF90CF900895BC
S11307101092C50087E68093C40088E18093C100ED
S113072086E08093C20008959091C00095FFFCCFAD
S11307308093C6000895CF93DF93EC0104C090E04A
S11307400E949403219688818111F9CFDF91CF9182
S113075008950E949C008EE391E00E94E60062E00E
S113076081E00E94BD0084E491E00E94E6000E94C2
S113077074020E9488030E94F9000E940D01609394
S11307804E0170934F01809350019093510161E0A9
S113079086E00E94BD0060914E0170914F018091EE
S11307A05001909151010E948601EC012FEF8DE3DD
S11307B099E4215080409040E1F700C00000CE0150
S11307C00E949B032FEF8DE399E4215080409040D9
S11307D0E1F700C00000CE010E94D1062FEF89E6A8
S11307E098E1215080409040E1F700C000000E9451
S11307F003010E940D016093520170935301809391
S113080054019093550162E086E00E94BD0060911E
S113081052017091530180915401909155010E94AD
S11308200A03EC010E949B03CE010E94D1062FEF24
S113083089E698E1215080409040E1F700C0000033
S11308409ACF5058BB27AA270E9439040C948305D9
S11308500E94750538F00E947C0520F039F49F3F12
S113086019F426F40C9472050EF4E095E7FB0C944D
S11308706C05E92F0E94940558F3BA1762077307B1
S11308808407950720F079F4A6F50C94B6050EF4C8
S1130890E0950B2EBA2FA02D0B01B90190010C018C
S11308A0CA01A0011124FF27591B99F0593F50F4A4
S11308B0503E68F11A16F040A22F232F342F4427FC
S11308C0585FF3CF469537952795A795F0405395F4
S11308D0C9F77EF41F16BA0B620B730B840BBAF0C4
S11308E09150A1F0FF0FBB1F661F771F881FC2F72F
S11308F00EC0BA0F621F731F841F48F48795779543
S11309006795B795F7959E3F08F0B0CF9395880FFC
S113091008F09927EE0F9795879508950E94A204F1
S11309200C9483050E947C0558F00E94750540F0E4
S113093029F45F3F29F00C946C0551110C94B70510
S11309400C9472050E94940568F39923B1F355231E
S113095091F3951B550BBB27AA27621773078407CE
S113096038F09F5F5F4F220F331F441FAA1FA9F364
S113097035D00E2E3AF0E0E832D091505040E69552
S1130980001CCAF72BD0FE2F29D0660F771F881FB3
S1130990BB1F261737074807AB07B0E809F0BB0BA6
S11309A0802DBF01FF2793585F4F3AF09E3F5105BA
S11309B078F00C946C050C94B7055F3FE4F3983E13
S11309C0D4F3869577956795B795F7959F5FC9F7A3
S11309D0880F911D9695879597F90895E1E0660F24
S11309E0771F881FBB1F621773078407BA0720F09D
S11309F0621B730B840BBA0BEE1F88F7E095089506
S1130A000E949C0588F09F5798F0B92F9927B751F9
S1130A10B0F0E1F0660F771F881F991F1AF0BA959E
S1130A20C9F714C0B13091F00E94B605B1E0089541
S1130A300C94B605672F782F8827B85F39F0B93F33
S1130A40CCF3869577956795B395D9F73EF4909551
S1130A508095709561957F4F8F4F9F4F0895E894CF
S1130A6009C097FB3EF490958095709561957F4FF2
S1130A708F4F9F4F9923A9F0F92F96E9BB279395A0
S1130A80F695879577956795B795F111F8CFFAF4B0
S1130A90BB0F11F460FF1BC06F5F7F4F8F4F9F4FE1
S1130AA016C0882311F096E911C0772321F09EE83F
S1130AB0872F762F05C0662371F096E8862F70E0A5
S1130AC060E02AF09A95660F771F881FDAF7880F7F
S1130AD09695879597F9089597F99F6780E870E050
S1130AE060E008959FEF80EC089500240A941616A0
S1130AF0170618060906089500240A941216130608
S1130B00140605060895092E0394000C11F4882395
S1130B1052F0BB0F40F4BF2B11F460FF04C06F5FB1
S1130B207F4F8F4F9F4F089557FD9058440F551F87
S1130B3059F05F3F71F04795880F97FB991F61F05B
S1130B409F3F79F087950895121613061406551FD2
S1130B50F2CF4695F1DF08C0161617061806991F3E
S1130B60F1CF86957105610508940895E894BB2733
S1130B7066277727CB0197F908950E94D0050C9436
S1130B8083050E94750538F00E947C0520F09523AA
S1130B9011F00C946C050C94720511240C94B70597
S1130BA00E94940570F3959FC1F3950F50E0551F73
S1130BB0629FF001729FBB27F00DB11D639FAA27AE
S1130BC0F00DB11DAA1F649F6627B00DA11D661FFD
S1130BD0829F2227B00DA11D621F739FB00DA11D1E
S1130BE0621F839FA00D611D221F749F3327A00DD8
S1130BF0611D231F849F600D211D822F762F6A2F74
S1130C0011249F5750409AF0F1F088234AF0EE0FD8
S1130C10FF1FBB1F661F771F881F91505040A9F705
S1130C209E3F510580F00C946C050C94B7055F3F12
S1130C30E4F3983ED4F3869577956795B795F79541
S1130C40E7959F5FC1F7FE2B880F911D96958795B9
S1130C5097F90895A29FB001B39FC001A39F700D9F
S1130C60811D1124911DB29F700D811D1124911DB0
S1130C7008950F931F93CF93DF938230910510F45F
S1130C8082E090E0E0915801F091590120E030E0D9
S1130C90A0E0B0E0309719F14081518102811381C5
S1130CA048175907C8F08417950769F4109731F06D
S1130CB012960C93129713961C9327C00093580115
S1130CC01093590122C02115310519F04217530719
S1130CD018F49A01BD01EF01DF01F801DBCF211502
S1130CE03105F9F0281B390B2430310580F48A8151
S1130CF09B816115710521F0FB019383828304C0FC
S1130D009093590180935801FE01329644C0FE012C
S1130D10E20FF31F81939193225031093983288381
S1130D203AC02091560130915701232B41F4209170
S1130D300201309103013093570120935601209111
S1130D400001309101012115310541F42DB73EB761
S1130D504091040150910501241B350BE09156018B
S1130D60F0915701E217F307A0F42E1B3F0B28174D
S1130D70390778F0AC014E5F5F4F2417350748F010
S1130D804E0F5F1F509357014093560181939193E7
S1130D9002C0E0E0F0E0CF01DF91CF911F910F910D
S1130DA00895CF93DF93009709F481C0FC01329733
S1130DB013821282A0915801B0915901109781F4C5
S1130DC020813181820F931F209156013091570168
S1130DD02817390751F5F0935701E093560167C07E
S1130DE0ED0120E030E0CE17DF0740F44A815B815B
S1130DF09E0141155105F1F0EA01F5CFD383C28379
S1130E0040815181840F951FC817D90759F48881EF
S1130E109981840F951F0296918380838A819B8197
S1130E20938382832115310529F4F0935901E093CA
S1130E3058013DC0E901FB83EA8349915991C40FEC
S1130E40D51FEC17FD0761F480819181840F951FF4
S1130E500296E90199838883828193819B838A83A3
S1130E60E0E0F0E012968D919C911397009719F0B1
S1130E70FD01DC01F7CF8D919C9111979D012E5FAF
S1130E803F4F820F931F209156013091570128172D
S1130E90390769F4309729F41092590110925801D6
S1130EA002C013821282B0935701A0935601DF91BE
S10B0EB0CF910895F894FFCFDF
S1130EB800005A0120007B2273656E736F72223A18
S1130EC82274656D7065726174757265222C227660
S1130ED8616C756522007B2273656E736F72223AAA
S1130EE822616972222C2276616C75652200546530
S10D0EF86D703A004169723A00007F
S9030000FC
