:100000000C943E000C945B000C945B000C945B0021
:100010000C945B000C945B000C945B000C945B00F4
:100020000C945B000C945B000C945B000C947D02C0
:100030000C945B000C945B000C945B000C945B00D4
:100040000C945B000C945B000C94430F0C945B00CD
:100050000C945B000C945B000C945B000C945B00B4
:100060000C945B000C945B006C0C6C0C6C0CA70C7F
:10007000950CA40C6C0C6C0CA70C950C11241FBED9
:10008000CFEFD8E0DEBFCDBF11E0A0E0B1E0EEE3FE
:10009000FBE202C005900D92AE3AB107D9F728E015
:1000A000AEEAB1E001C01D92A23AB207E1F70E94A8
:1000B00022120C949D150C940000FC01039692836F
:1000C00081832FEF3FEF348323839683858390874B
:1000D000878310820895FC01118610860895CF93BE
:1000E000DF939C01FB01DC011196CD91DC9112970D
:1000F000D383C2838C819D81958384838C819D81F0
:10010000DC0113967C936E9312977D836C83318709
:100110002087F90180818F5F8083DF91CF910895DF
:10012000CF93DF93EB01488159814F3F2FEF520767
:1001300021F4FC01A781B0850DC0DC01139601C03C
:10014000DF011296ED91FC911397208131814217C6
:100150005307B0F71296ED91FC911397FB83EA8356
:10016000D583C483BD83AC831396DC93CE9312975F
:1001700099878887FC0120812F5F2083DF91CF91B1
:100180000895CF93DF93FC01A085B185C281D3810F
:10019000848195819D838C83C481D5818281938163
:1001A0009B838A8311968D919C911297E817F9078A
:1001B00031F48481958112969C938E9311971186C8
:1001C00010868C9181508C93DF91CF910895CF93BD
:1001D000DF93EC010E9455078091AE019091AF0131
:1001E000892B31F483EB91E09093AF018093AE01C2
:1001F0002091B0013091B101C9018C0F9D1F8B3D41
:1002000045E0940770F42817390770F4C091AE01E7
:10021000D091AF01C20FD31F9093B1018093B00171
:1002200005C0C0E0D0E002C0C0E0D0E00E942008DD
:10023000CE01DF91CF910895089531E1FC01308323
:10024000319722E220833197A3E3A0833197608323
:100250003197708331971082319760E860833197CE
:100260001082319762E06083319763E06083319759
:1002700064E06083319765E06083319766E0608376
:10028000319767E06083319768E06083319769E078
:100290006083319760E1608331973083319732E139
:1002A0003083319733E13083319734E130833197B4
:1002B00035E13083319736E13083319737E1308350
:1002C000319738E13083319739E13083319730E22B
:1002D0003083319731E2308331972083319723E2A5
:1002E00020833197408331975083319726E22083D2
:1002F000319727E22083319728E22083319729E242
:100300002083319720E32083319721E32083869750
:10031000089589EF90E09093890080938800E0E849
:10032000F0E080818C7F80838BE080938100EFE61A
:10033000F0E0808182608083A091F207B091F307A2
:10034000CD91CDBFDD91DEBFFF91EF91DF91CF91D8
:10035000BF91AF919F918F917F916F915F914F91DD
:100360003F912F911F910F91FF90EF90DF90CF90D1
:10037000BF90AF909F908F907F906F905F904F90C5
:100380003F902F901F900F900FBE0F90089581E027
:1003900008950F920FB6F8940F921F9211242F9286
:1003A0003F924F925F926F927F928F929F92AF9205
:1003B000BF92CF92DF92EF92FF920F931F932F93F2
:1003C0003F934F935F936F937F938F939F93AF93DD
:1003D000BF93CF93DF93EF93FF93A091F207B09178
:1003E000F3070DB60D920EB60D920E94F208A09181
:1003F000F207B091F307CD91CDBFDD91DEBFFF9144
:10040000EF91DF91CF91BF91AF919F918F917F91AC
:100410006F915F914F913F912F911F910F91FF909D
:10042000EF90DF90CF90BF90AF909F908F907F9094
:100430006F905F904F903F902F901F900F900FBE46
:100440000F9008950F920FB6F8940F921F921124F7
:100450002F923F924F925F926F927F928F929F92D4
:10046000AF92BF92CF92DF92EF92FF920F931F93C2
:100470002F933F934F935F936F937F938F939F93AC
:10048000AF93BF93CF93DF93EF93FF93A091F207C6
:10049000B091F3070DB60D920EB60D920E9465074E
:1004A0000E94F208A091F207B091F307CD91CDBF61
:1004B000DD91DEBFFF91EF91DF91CF91BF91AF91C1
:1004C0009F918F917F916F915F914F913F912F916C
:1004D0001F910F91FF90EF90DF90CF90BF90AF9062
:1004E0009F908F907F906F905F904F903F902F9054
:1004F0001F900F900FBE0F9008950E942202189532
:100500000F931F93CF93DF93EC01042F1A8D4C8D23
:100510004423B9F1011116C050E08C819D810E94E5
:1005200094152C8D8C819D81820F911D9D838C83D0
:100530002A813B818217930720F1888199819D83CD
:100540008C831FC050E08E819F810E9494158C8DFA
:1005500090E09195819591092E813F81280F391F57
:100560003F832E83488159812417350730F42A812F
:100570003B81820F931F9F838E83023011F41111F0
:1005800011501F5F1A8F80E0DF91CF911F910F9163
:100590000895FC01448D4423A9F050E02681378161
:1005A000240F351F378326838281938128173907CB
:1005B00020F08081918197838683CB01668177814A
:1005C0000E9494150895EF92FF920F931F93CF937B
:1005D0008C010FB6F8940F92FC01C68D1C16ACF47A
:1005E0008189811106C011C0F8018189811105C07E
:1005F0000CC07801F1E1EF0EF11CC7010E94D10996
:1006000081110E945D0AC15079F78FEFF801868F42
:100610000F900FBE0FB6F8940F92C58D1C16ACF458
:100620008085811106C011C0F8018085811105C047
:100630000CC07801F8E0EF0EF11CC7010E94D1094F
:1006400081110E945D0AC15079F78FEFF801858F03
:100650000F900FBECF911F910F91FF90EF900895D3
:10066000CF93DF93EC010FB6F8940F924881598134
:100670002C8D30E07B8D729FC001739F900D1124F3
:10068000FA01E80FF91FFB83EA831A8E5D834C831E
:10069000821B930B840F951F9F838E838FEF8D8F0B
:1006A0008E8F61110CC08885882389F0CE01089651
:1006B0000E94D109882359F00E94C90108C0CE01C7
:1006C00008960E945D00CE0141960E945D000F9049
:1006D0000FBE81E0DF91CF9108950F931F93CF93C9
:1006E000DF93082F162F6623C1F0869FC0011124C7
:1006F0004F960E94E700EC01009741F415C00B8F64
:100700001C8F61E0CE010E9430030EC04F9699838A
:100710008883F5CFD983C883F2CF8FE190E00E9420
:10072000E700EC01892BB1F7CE01DF91CF911F914A
:100730000F9108959F92AF92BF92CF92DF92EF9266
:10074000FF920F931F93CF93DF9300D000D01F929F
:10075000CDB7DEB78C016B015D834C83A22EB12C2B
:10076000992493947C0188E0E80EF11C0FB6F8946C
:100770000F92F801928D838D981718F0F2E0AF1266
:1007800019C04A2DB601C8010E948002F801918962
:10079000992349F0C80141960E94D109882331F07C
:1007A0000E94C90103C081110E94C9010F900FBEB0
:1007B00081E050C08C819D81892B21F40F900FBE68
:1007C00080E048C0B11005C0CE0101960E94190A10
:1007D000B92C0F900FBE0E9455070FB6F8940F92D8
:1007E000F801858D8F3F09F4158EF801868D8F3FB6
:1007F00009F4168E0F900FBEBE016C5F7F4FCE01C5
:1008000001960E94240A81111FC00FB6F8940F921E
:10081000F801928D0F900FBE838D98130FC06C81DD
:100820007D81C7010E94A609C8010E94E3020E94BF
:10083000200881119BCF0E94C90198CFC8010E9456
:10084000E3020E94200892CFC8010E94E3020E94A6
:10085000200880E00F900F900F900F900F90DF9185
:10086000CF911F910F91FF90EF90DF90CF90BF90AD
:10087000AF909F900895EF92FF920F931F93CF93A5
:10088000DF938A01FC01528D338D531710F0223013
:10089000F1F4422F7801EC011E8D0E9480021F3F6F
:1008A00081F489898823A9F0CE0141960E94D1095B
:1008B000882389F0E114F10481F081E0F70180835D
:1008C0000DC0FF24F394F10EFE8E81E007C080E09E
:1008D00005C081E003C081E001C081E0DF91CF91DC
:1008E0001F910F91FF90EF9008958F929F92AF927A
:1008F000BF92CF92DF92EF92FF920F931F93CF930D
:10090000DF9300D000D01F92CDB7DEB78C015B0122
:100910005D834C83822EE12C992493946C0181E1B8
:10092000C80ED11C0FB6F8940F92F801F28CFF207C
:1009300041F1C680D780B501C8010E94C90281106B
:100940000FC0FA94F801F28E80858823B1F0C801B7
:1009500008960E94D109882381F00E94C9010DC028
:10096000F801D782C6828189882339F0C80141966F
:100970000E94D10981110E94C9010F900FBE81E030
:1009800057C08C819D81892B21F40F900FBE80E090
:100990004FC0E11005C0CE0101960E94190AE92C52
:1009A0000F900FBE0E9455070FB6F8940F92F801F2
:1009B000858D8F3F09F4158EF801868D8F3F09F4E0
:1009C000168E0F900FBEBE016C5F7F4FCE01019659
:1009D0000E94240A81111EC00FB6F8940F92F801EC
:1009E000828D0F900FBE81110FC06C817D81C60179
:1009F0000E94A609C8010E94E3020E9420088111FA
:100A000091CF0E94C9018ECFC8010E94E3020E94CB
:100A1000200888CFC8010E94E3020E9420080FB678
:100A2000F8940F92F801828D0F900FBE81117ACF4A
:100A30000F900F900F900F900F90DF91CF911F911B
:100A40000F91FF90EF90DF90CF90BF90AF909F906D
:100A50008F90089520917B0830917C08232B31F4EE
:100A6000EBE7F8E071836083938382830895CF93EB
:100A7000DF93EC010FB6F8940F928D8D8F3F09F440
:100A80001D8E8E8D8F3F09F41E8E0F900FBE8A8DA6
:100A9000811104C0CE0141960E94B809CE010E9486
:100AA000E302DF91CF910895E091BA07F091BB077F
:100AB0008081811107C08FEF9FEF90939207809301
:100AC00091070895E091BA07F091BB070580F68180
:100AD000E02D0680F781E02D82819381909392072B
:100AE000809391070895FF920F931F93CF93DF9305
:100AF000EC01F62E0091990710919A078091F20768
:100B00009091F30702960E94C100CF3F8FEFD80764
:100B100069F4FF2059F06091F2077091F3076E5F5E
:100B20007F4F8CE997E00E946F002FC0C00FD11F4C
:100B3000E091F207F091F307D383C283C017D10786
:100B400068F46091F2077091F3078091B807909173
:100B5000B9076E5F7F4F0E94900017C06091F20747
:100B60007091F3078091BA079091BB076E5F7F4F3A
:100B70000E9490008091910790919207C817D90721
:100B800020F4D0939207C0939107DF91CF911F91EA
:100B90000F91FF9008954F925F926F927F928F9284
:100BA0009F92AF92BF92CF92DF92EF92FF920F93FC
:100BB000CF93DF934C016B015A012901CA010E94B6
:100BC000E7003C01892B09F4E2C086E290E00E9434
:100BD000E700EC01892B71F0788E6F8A81E0A81A0A
:100BE000B108A60CB71CD6018C91898F8C9181110C
:100BF00005C018C0C3010E941C01C9C0AE01465EF9
:100C00005F4FF6013196B8E0CB0ED11CCF01219198
:100C1000DA012D93AD01DC018C91882319F0EC15DC
:100C2000FD05A1F718A2043008F003E00E8B6E0159
:100C3000B2E0CB0ED11CC6010E946B00CE010C9617
:100C40000E946B00D987C88784E090E0801B9109DF
:100C50009D878C87DB8BCA8B19A21AA21BA21CA2B0
:100C60001DA2A201B401C5010E941D0199838883C0
:100C7000E114F10419F0F701D183C0830FB6F894A1
:100C80000F9280919B078F5F80939B078091F20763
:100C90009091F307892BD1F5D093F307C093F20716
:100CA00080919B07813009F041C08EEC97E00E9453
:100CB0005D0087ED97E00E945D0080EE97E00E9466
:100CC0005D0089EE97E00E945D0085EC97E00E9450
:100CD0005D008CEB97E00E945D008FEA97E00E9438
:100CE0005D0086EA97E00E945D008CE997E00E9433
:100CF0005D0085EC97E09093BB078093BA078CEB7F
:100D000097E09093B9078093B80710C08091970738
:100D100081110CC0E091F207F091F30796898E895A
:100D2000891720F0D093F307C093F20780919307BF
:100D30008F5F809393078E8990919807981710F48E
:100D40008093980790E09C01220F331F220F331FDE
:100D5000220F331F820F931FB6018253984F0E94B8
:100D60006F000F900FBE80919707882361F0E0918C
:100D7000F207F091F30796898E89981730F40E9454
:100D8000C90181E005C081E003C081E001C08FEFAF
:100D9000DF91CF910F91FF90EF90DF90CF90BF90B8
:100DA000AF909F908F907F906F905F904F9008953D
:100DB0000F931F93CF93DF93009709F443C02091C3
:100DC000F2073091F3078217930709F43BC00FB67F
:100DD000F8940F92FC01228533852C59374081F518
:100DE000FC0124893589F7E02F3A3F0749F1232B8D
:100DF00039F5EC018C010E5F1F4FC8010E94C10044
:100E00008E8990919807981710F48093980790E036
:100E10009C01220F331F220F331F220F331F820F1B
:100E2000931FB8018253984F0E946F00E091F20720
:100E3000F091F3079E898689981710F00E94C901E6
:100E40000F900FBEDF91CF911F910F910895EF92F8
:100E5000FF920F930F2EFFE8EF2EF7E0FF2EF02DFD
:100E600000E020E030E045E550E060E071E083EB39
:100E700098E00E94CB058130A1F40E94CD0A813018
:100E800081F4F8948FEF9FEF9093920780939107EE
:100E900081E08093970710929A07109299070E9419
:100EA00089010F91FF90EF90089580918E078F5FD9
:100EB00080938E0708950FB6F8940F92809199074A
:100EC00090919A070F900FBE0895CF92DF92EF9204
:100ED000FF920F931F93CF93DF9380918E07811121
:100EE00099C0E0909907F0909A078FEFE81AF80AF6
:100EF000F0929A07E0929907E114F104B9F4809115
:100F0000BA079091BB072091B8073091B907309389
:100F1000BB072093BA079093B9078093B8078091D5
:100F200094078F5F809394070E94540580919107E6
:100F300090919207E816F90610F4D12C53C0D12CE9
:100F4000CC24C394E091BA07F091BB078081811152
:100F500007C08FEF9FEF909392078093910742C055
:100F6000E091BA07F091BB070580F681E02DC681BC
:100F7000D7818A819B81E816F90628F4909392071D
:100F8000809391072FC08E010E5F1F4FC8010E94F2
:100F9000C1008C899D89892B21F0CE010C960E947D
:100FA000C1008E8990919807981710F48093980744
:100FB00090E09C01220F331F220F331F220F331F9B
:100FC000820F931FB8018253984F0E946F00E091E7
:100FD000F207F091F3079E898689981708F4B2CF3B
:100FE000DC2CB0CFE091F207F091F307868990E016
:100FF000FC01EE0FFF1FEE0FFF1FEE0FFF1F8E0F06
:101000009F1FFC01E253F84F8081823048F0DD24BD
:10101000D39406C0809196078F5F80939607D12C5A
:1010200080919507882311F0DD24D3948D2DDF91D5
:10103000CF911F910F91FF90EF90DF90CF90089587
:10104000DF92EF92FF920F931F93CF93DF930FB630
:10105000F8940F9280918E07815080938E07809133
:101060008E0781115FC080919B07811133C05DC0E5
:10107000D7011596ED91FC911697C681D781CE01C7
:101080000C960E94C1008E010E5F1F4FC8010E9486
:10109000C1008E8990919807981710F48093980753
:1010A00090E09C01220F331F220F331F220F331FAA
:1010B000820F931FB8018253984F0E946F00E091F6
:1010C000F207F091F3079E898689981768F0D0920D
:1010D00095070AC0C0E0D0E00F2EFFEAEF2EF7E040
:1010E000FF2EF02DDD24D394F70180818111C0CF34
:1010F000CD2B11F00E945405C0919607CC2351F0DE
:10110000D1E00E9465078111D0939507C150C9F7BE
:101110001092960780919507882331F00E94C901AB
:1011200081E003C080E001C080E00F900FBEDF913E
:10113000CF911F910F91FF90EF90DF900895CF9383
:10114000DF93EC01892B51F00E94550760E0CE013E
:101150000E9473050E942008811102C00E94C901EB
:10116000DF91CF91089506EA17E00F2EFEECEF2EE7
:10117000F7E0FF2EF02D29C00E945507D801CC9131
:101180000E942008CC2309F10FB6F8940F92D801E1
:101190001596ED91FC911697C681D781CE010296E6
:1011A0000E94C10080919B07815080939B07809192
:1011B000A50781508093A5070F900FBE8F89988D4A
:1011C0000E941C01CE010E941C018091A507811183
:1011D000D3CFF7018081823010F00E94C9010E94B4
:1011E0004C13F3CF80918E07882321F081E0809308
:1011F000950708951092950720919807822F90E007
:10120000FC01EE0FFF1FEE0FFF1FEE0FFF1FE80F99
:10121000F91FE253F84F3081311111C02150822F54
:1012200090E0FC01EE0FFF1FEE0FFF1FEE0FFF1F00
:10123000E80FF91FE253F84F3081332379F3AC0103
:10124000440F551F440F551F440F551F480F591F7A
:10125000DA01A253B84F1196ED91FC9112970280DA
:10126000F381E02D1296FC93EE9311974F52584F55
:10127000E417F50729F442815381FD01528341832C
:10128000FC01EE0FFF1FEE0FFF1FEE0FFF1F8E0F73
:101290009F1FFC01E253F84F0180F281E02D86810F
:1012A00097819093F3078093F2072093980708950E
:1012B0000F931F93CF93DF93EC010FB6F8940F9227
:1012C000892B21F4C091F207D091F3078E010E5FB4
:1012D0001F4FC8010E94C1008C899D89892B21F074
:1012E000CE010C960E94C100B8018CE997E00E94E3
:1012F0006F000F900FBE80919707882339F00FB6CB
:10130000F8940F920E9454050F900FBE8091F2073F
:101310009091F307C817D907A1F480919707882304
:1013200019F00E94C9010DC080919B0790919C0704
:10133000981305C01092F3071092F20702C00E94A2
:10134000F208DF91CF911F910F910895CF93DF9312
:10135000EB016091F2077091F307645F7F4F0E9489
:10136000900061E0CE010E947305DF91CF91089556
:101370000F931F93CF938B01C42F6091F20770914D
:10138000F307645F7F4F0E946F00CC2311F00FEFD3
:101390001FEF6C2FC8010E947305CF911F910F9111
:1013A00008950F931F93CF93DF93DC011596ED9172
:1013B000FC911697C681D7818E01045F1F4FC8012B
:1013C0000E94C10080918E0781111CC00A50110932
:1013D000C8010E94C1008E8990919807981710F457
:1013E0008093980790E09C01220F331F220F331F38
:1013F000220F331F820F931FB8018253984F0E9410
:101400006F0005C0B8018FEA97E00E946F00E0917D
:10141000F207F091F3079E898689891720F481E00D
:101420008093950701C080E0DF91CF911F910F91CC
:10143000089520919407FC01208320919907309111
:101440009A073283218308950FB6F8940F92409142
:10145000990750919A07DB012D913C912F3FBFEFE7
:101460003B0719F1E0919407DC01FC91FE1739F07C
:101470001196ED91FC9112974E175F07C0F4DC01B5
:101480001196ED91FC911297DA01AE1BBF0BA217DA
:10149000B30778F4DB01E41BF50B2E0F3F1F2D93F0
:1014A0003C930E94190A80E005C080E003C081E0FF
:1014B00001C081E00F900FBE089581E080939507F1
:1014C000089580919707882331F080918E078823B3
:1014D00021F080E0089581E0089582E00895FC0104
:1014E00073836283918780874617570790F0421B6A
:1014F000530B8485958548175907E0F4BF016E5F4B
:101500007F4F8091FA079091FB070E94900080E046
:1015100008954217530718F46217730768F4BF0160
:101520006E5F7F4F8091FC079091FD070E949000B5
:1015300080E0089581E0089581E008950FB6F89461
:101540000F928091F8079091F907892B19F587E0A0
:1015500098E00E945D008EEF97E00E945D0087E0BA
:1015600098E09093FD078093FC078EEF97E09093AF
:10157000FB078093FA0740E065E085E00E946D0379
:101580009093F9078093F807009721F065E071E0E8
:101590000E942A050F900FBE0895EF92FF920F93BD
:1015A0000E949E0A8091F8079091F907892B91F08B
:1015B0000F2EF6EFEF2EF7E0FF2EF02D02E020E0E9
:1015C00030E045E550E06AE071E089ED9BE00E9483
:1015D000CB0501C080E00F91FF90EF9008959F929E
:1015E000AF92BF92CF92DF92EF92FF920F931F9331
:1015F000CF93DF935C016B01942E790183E190E03E
:101600000E94E700EC01892B79F00E949E0AB982C2
:10161000A882DD86CC869E86F88AEF861A8B098B97
:10162000CE0102960E946B00CE01DF91CF911F91F7
:101630000F91FF90EF90DF90CF90BF90AF909F9071
:1016400008950F931F93CF93DF9300D000D01F9284
:10165000CDB7DEB7E091F807F091F907309771F157
:10166000D90169835B834A839D838C836630ECF464
:101670000E94610A823061F420E0A801BE016F5F20
:101680007F4F8091F8079091F9070E949A0317C045
:1016900020E040E050E0BE016F5F7F4F8091F8078F
:1016A0009091F9070E949A030AC020E0AD01BE01A3
:1016B0006F5F7F4FCF010E943B0401C080E00F901D
:1016C0000F900F900F900F90DF91CF911F910F917E
:1016D0000895AF92BF92CF92DF92EF92FF920F9355
:1016E0001F93CF93DF936C010E945B077C01809175
:1016F000F4079091F507E816F90608F048C030C0E5
:101700000580F681E02DA080B180C681D7818E0151
:101710000E5F1F4FC8010E94C100E989FA89CE01FE
:1017200009958E858130E1F48C859D858A0D9B1D00
:10173000A816B90660F49B838A83D987C887B80145
:101740008091FC079091FD070E94900009C000E085
:1017500010E020E030E0A50160E0CE010E94210B06
:10176000E091FC07F091FD0780818111C9CF809144
:10177000FA079091FB079093FD078093FC07F09385
:10178000FB07E093FA0781E0F601808302C0F601CF
:101790001082F092F507E092F407C701DF91CF9134
:1017A0001F910F91FF90EF90DF90CF90BF90AF907F
:1017B0000895CF93DF9300D000D000D0CDB7DEB72F
:1017C000CE0101964C0144244394D12CE12CF12C00
:1017D000582EC92CE091FC07F091FD0780818823E9
:1017E00009F4C3C00580F681E02DA080B1800E947D
:1017F0005507C4010E94690B8C018981811147C082
:101800000A151B0598F10E942008E091FC07F09151
:10181000FD070580F681E02D66807780C301029682
:101820000E94C100D3011E968C911E978130B1F4A5
:101830001C966D917C911D976A0D7B1D9501A801E9
:10184000C3010E946F0A882349F00D2D1E2D2D2DF6
:101850003E2DA5016F2DC3010E94210BD30151968E
:10186000ED91FC915297C301099571C04F2DB501BF
:10187000601B710B8091F8079091F9070E94370562
:101880000E942008811163C00E94C90160C00E94AB
:1018900020085DC0898188230CF459C0AC80BD80CC
:1018A000F50182859385892B21F0C50102960E945E
:1018B000C100CE0106960E94690BE9810E2FEE0F42
:1018C000110B220B330B0A30110508F040C0F80150
:1018D000EC5CFF4F0C947F152A813B81D5011C964F
:1018E0006D917C911D97620F731FAC01C5010E9421
:1018F0006F0A882361F1D5015196ED91FC915297C1
:10190000C5010995F5018685813009F54A815B811C
:1019100084859585480F591F0D2D1E2D2D2D3E2D8B
:101920006F2DC5010E94210B12C06A817B81D501F8
:101930001D967C936E931C97680F791F9C01AC01D8
:10194000C5010E946F0A03C0C5010E941C012F2D12
:101950004D2D5E2D652D7C2D8091F8079091F90716
:101960000E947504811196CF35CF0E945507C4019E
:101970000E94690B8C018981811189CFE091FA075E
:10198000F091FB07442D808181114F2DAD2CBE2C91
:101990006ECFE0ECF0E0908195FFFDCF8093C60024
:1019A0000895EAE7F0E0808180648083808184FF8D
:1019B000FDCFEAE7F0E0808180618083809178004C
:1019C0006091790070E0762F6627680F711D072EF1
:1019D000000C880B990B0E945D1408959BB19F70B9
:1019E0009BB99BB1282F207F922B9BB9299A35E078
:1019F0003A95F1F700002998EFE8F1E03197F1F717
:101A000000C000009BB19F709BB92BB1F0E18F9F8C
:101A1000C0011124822B8BB9299A35E03A95F1F750
:101A2000000029988FE891E00197F1F700C00000CD
:101A3000089528980E94EE0C0895289A0E94EE0CB2
:101A40000895CF93DF9300D000D0CDB7DEB790E8F4
:101A5000998390EC9A8394E99B8394ED9C83FE0197
:101A6000E60FF11D81509081890F0E94190D8FE8BA
:101A700091E00197F1F700C000000F900F900F90D8
:101A80000F90DF91CF91089580917F0881110BC055
:101A9000E0EBF0E080818D778083E1EBF0E0808106
:101AA000897F80830895E0EBF0E080818166808308
:101AB000E1EBF0E080818360808387E88093B4006D
:101AC00020E044E650E060E070E080918208909170
:101AD00083080E9475048130E1F480917F088111B0
:101AE00007C083E30E94C90C8AE00E94C90C06C0AB
:101AF00082E30E94C90C8AE00E94C90C20E040E009
:101B000050E060E070E080918208909183080E942C
:101B10009A0308958091A108811102C02B9803C0F7
:101B20002B9A2A9A2C9820E044E650E060E070E07E
:101B300080918208909183080E9475048130E1F4BD
:101B40008091A108811107C085E30E94C90C8AE039
:101B50000E94C90C06C084E30E94C90C8AE00E945E
:101B6000C90C20E040E050E060E070E08091820825
:101B7000909183080E949A03089581E08093A008C1
:101B800080937F088093A1085A9A0E94440D0E9476
:101B90008A0D20E044E650E060E070E08091820829
:101BA000909183080E947504813089F480E30E943B
:101BB000C90C8AE00E94C90C20E040E050E060E0DF
:101BC00070E080918208909183080E949A030895A2
:101BD0001092A0085A9810927F081092A1080E94B3
:101BE0008A0D0E94440D20E044E650E060E070E081
:101BF00080918208909183080E947504813089F455
:101C000081E30E94C90C8AE00E94C90C20E040E0F8
:101C100050E060E070E080918208909183080E941B
:101C20009A030895CF93DF9300D0CDB7DEB711E0CC
:101C300020E04FEF5FEFBE016F5F7F4F80919A080A
:101C400090919B080E94750489819A81C097992779
:101C50008230910599F02CF4009751F0019759F0DA
:101C6000E7CF84309105A1F074F00597B1F0E0CF93
:101C70000E94BD0DDDCF0E94E80DDACF10937F08E2
:101C80000E94440DD5CF10927F080E94440DD0CF02
:101C90001093A1080E948A0DCBCF1092A1080E9438
:101CA0008A0DC6CFCF93DF9300D000D0CDB7DEB77B
:101CB0000F2EFAE7EF2EF12CF02D0F2EF7E8CF2E96
:101CC000F02D0CE710E00F2EF0ECDF2EF02D8091C0
:101CD0009C0890919D080E945809809194089091C9
:101CE0009508009709F44BC020E044E650E060E01E
:101CF00070E00E947504813009F041C03898F70106
:101D0000C082F801D0828AE090E00E949F080E9481
:101D1000D10C20E030E040E251E40E94EE1420E0DB
:101D200030E04AEB52E40E94BA1320E030E048E48D
:101D300052E40E944D1369837A838B839C8320E055
:101D400040E050E060E070E0809194089091950848
:101D50000E949A0320E030E044E652E469817A81EF
:101D60008B819C810E94E91418161CF40E94BD0D01
:101D700006C08091A008813011F40E94E80D809186
:101D80008A0890918B08009709F4A1CF20E044E6DF
:101D900050E0BE016F5F7F4F0E949A0398CFCF93B0
:101DA000DF9300D000D0CDB7DEB70F2EFAE7EF2ECD
:101DB000F12CF02D0F2EF7E8CF2EF02D0CE710E0D0
:101DC0000F2EF1E4DF2EF02D80E090E00E94580904
:101DD00080919408909195080097C1F120E044E625
:101DE00050E060E070E00E947504813079F5399828
:101DF000F701C082F801D0828AE090E00E949F083B
:101E00000E94D10C69837A838B839C8320E040E01D
:101E100050E060E070E080919408909195080E94F5
:101E20009A0320E030E048E453E469817A818B81B1
:101E30009C810E94E91418161CF40E94BD0D06C076
:101E40008091A008813011F40E94E80D80919E08D5
:101E500090919F08009709F4B7CF20E044E650E046
:101E6000BE016F5F7F4F0E949A03AECF80919C08A6
:101E700090919D080E94D8068091980890919908A9
:101E80000E94D80608951F920F920FB60F92112448
:101E90002F933F934F935F936F937F938F939F9372
:101EA000AF93BF93EF93FF93CF93DF9300D0CDB762
:101EB000DEB78091C60089831A8220E0AE014E5FB2
:101EC0005F4FBE016F5F7F4F80919A0890919B0892
:101ED0000E943B048A8181110E94C9010F900F90DA
:101EE000DF91CF91FF91EF91BF91AF919F918F9132
:101EF0007F916F915F914F913F912F910F900FBE06
:101F00000F901F901895CF93DF93EC018881882361
:101F100031F021960E94C90C89918111FBCFDF918C
:101F2000CF9108950F931F93CF93DF93CDB7DEB773
:101F3000A0970FB6F894DEBF0FBECDBF90E2E2E1EE
:101F4000F1E0DE01119601900D929A95E1F7FE0104
:101F50003196A9E4B8E08E010F5D1F4F91919D93DA
:101F6000E017F107D9F7E9E4F8E09AE3978F805D8D
:101F700080A3605D61A38EE282A3405D43A3205DE8
:101F800024A38DE785A38AE086A317A2CF01A0969C
:101F90000FB6F894DEBF0FBECDBFDF91CF911F917A
:101FA0000F910895CF92DF92EF92FF9220E030E000
:101FB00048EC52E40E94EE140E942C146B017C0148
:101FC000E5E4F8E09B0136952795369527953695FB
:101FD0002795A5ECB0E20E948515AC01529542957B
:101FE0004F7045275F7045279A01ADECBCEC0E940D
:101FF00085159695879596958795969587959C01D5
:10200000220F331F880F991F880F991F880F991F60
:10201000820F931F481B590B4083960136952795D5
:1020200036952795ABE7B4E10E948515AC0156952E
:1020300047959A01ADECBCEC0E9485159695879565
:1020400096958795969587959C01220F331F880F4B
:10205000991F880F991F880F991F820F931F481B84
:10206000590B418396010E948515AC015695479501
:1020700056954795569547959A010E9485159695D0
:10208000879596958795969587959C01220F331F86
:10209000880F991F880F991F880F991F820F931F10
:1020A0009A01281B390B2283CA01880F991F440FFC
:1020B000551F440F551F440F551F480F591FC41A71
:1020C000D50AC382CF01FF90EF90DF90CF900895A3
:1020D0001F93CF93DF93162FD42FC22F805D0E94C2
:1020E0001D0D80E3810F0E941D0D8EE20E941D0DCB
:1020F00080E38D0F0E941D0D80E38C0F0E941D0D4B
:102100008FED0E941D0DDF91CF911F910895CF9308
:10211000DF9300D000D0CDB7DEB780918A089091D0
:102120008B080097F1F320E044E650E0BE016F5FBA
:102130007F4F0E947504813081F769817A818B819C
:102140009C810E94D20F8C01FC012381428161811C
:1021500080810E94920F7C018AE390E00E949F0898
:1021600020E044E650E060E070E0809180089091CB
:1021700081080E9475048130B1F461E086E00E941C
:10218000210DF80123814281618180810E946810C4
:1021900020E040E050E060E070E0809180089091A5
:1021A00081080E949A0320E044E650E060E070E07D
:1021B00080918208909183080E947504813009F013
:1021C000ACCFC7010E94830F20E040E050E060E008
:1021D00070E080918208909183080E949A039DCFBD
:1021E000CF92DF92EF92FF920E942C146B017C0140
:1021F000E2E4F8E09B013695279536952795ABE705
:10220000B4E10E948515AC01569547959A01ADEC55
:10221000BCEC0E9485159695879596958795969521
:1022200087959C01220F331F880F991F880F991FD4
:10223000880F991F820F931F481B590B40839601EB
:102240000E948515AC01569547955695479556952C
:1022500047959A010E94851596958795969587953D
:10226000969587959C01220F331F880F991F880F21
:10227000991F880F991F820F931F9A01281B390BF2
:102280002183CA01880F991F440F551F440F551F02
:10229000440F551F480F591FC41AD50AC282CF01D7
:1022A000FF90EF90DF90CF900895CF93DF93D62FDC
:1022B000C42F805D0E941D0D80E38D0F0E941D0DB7
:1022C00080E38C0F0E941D0DDF91CF910895CF9375
:1022D000DF93CDB7DEB76C970FB6F894DEBF0FBEB5
:1022E000CDBF8E01035E1F4F0F2EF0E1CF2EF8E021
:1022F000DF2EF02D0F2EFAE39F2EF02D0F2EFEE293
:10230000AF2EF02D0F2EF8E15F2EF02D612C0F2E49
:10231000F7E13F2EF02D412C0F2EF0E3BF2EF02DD4
:102320000F2EFDE77F2EF02D0F2EFAE08F2EF02DD1
:1023300080919E0890919F080097F1F320E044E679
:1023400050E0BE016F5F7F4F0E947504813081F7BE
:1023500069817A818B819C810E94F0107C01FC0153
:1023600092812181308188E1E2E3F1E0DE0115967E
:1023700001900D928A95E1F7FE013596A0E1B8E053
:1023800081918D93E017F107D9F7F601978A311102
:1023900005C0205D208FE32DF42D07C0305DF601D0
:1023A000308F205D218FE52DF62DE05FF74F905D9A
:1023B0009283A382B482B5827682878210868AE372
:1023C00090E00E949F0820E044E650E060E070E06A
:1023D00080918008909181080E9475048130A9F451
:1023E00062E086E00E94210DF701428161818081D7
:1023F0000E94551120E040E050E060E070E08091E4
:102400008008909181080E949A0320E044E650E001
:1024100060E070E080918208909183080E947504CA
:10242000813009F085CFC6010E94830F20E040E093
:1024300050E060E070E080918208909183080E94F3
:102440009A036ACF1092A00810927F081092A108F8
:102450008AB1806F8AB984B1836084B929988FE387
:102460009FE10197F1F700C0000083E30E94190D7E
:1024700082E30E94190D88E20E94190D8CE00E94EF
:10248000190D86E00E94190D81E00E94190D8FE858
:102490009AE10197F1F700C00000C0E084E50E94D6
:1024A0001D0DCF5FEC2FF0E0E65BFE4F80818111C8
:1024B000F6CF62E081E00E94210DC0E081E40E943D
:1024C0001D0DCF5FEC2FF0E0E05BFE4F80818111AE
:1024D000F6CF1092C50087E68093C40088E9809308
:1024E000C10086E08093C20017B88FEF8AB984B12B
:1024F0008C6184B906E31FE020E030E041E068E849
:1025000073E185E591E00E94EF0A9093850880933E
:102510008408892B71F00E945B0700E010E020E046
:1025200030E0AC0161E080918408909185080E94C0
:10253000210B43E060E081E00E946D0390939508D9
:102540008093940843E060E081E00E946D039093E3
:1025500083088093820843E060E081E00E946D037D
:1025600090938108809380088091940890919508B9
:10257000009739F020E040E050E060E070E00E9419
:102580009A038091820890918308009739F020E0A7
:1025900040E050E060E070E00E949A038091800883
:1025A00090918108009739F020E040E050E060E031
:1025B00070E00E949A0340E062E082E00E946D03B6
:1025C00090939B0880939A0840E064E082E00E9428
:1025D0006D0390939F0880939E0840E064E082E042
:1025E0000E946D0390938B0880938A080F2EFCE95C
:1025F000EF2EF8E0FF2EF02D02E020E030E044E680
:1026000050E06BE571E082E59EE00E94CB050F2E65
:10261000FCE8EF2EF8E0FF2EF02D20E030E04AEF4E
:1026200050E06FE671E087E890E10E94CB050F2E45
:10263000F8E9EF2EF8E0FF2EF02D20E030E044E640
:1026400050E063E871E08FEC9EE00E94CB050F2E16
:10265000FEE8EF2EF8E0FF2EF02D20E030E048EC11
:1026600050E06FE871E087E691E10E94CB050F2E04
:10267000F6E9EF2EF8E0FF2EF02D03E020E030E049
:1026800044E650E06BE971E082E19EE00E94CB05F8
:1026900078940E942707FFCF08955058BB27AA2798
:1026A0000E9465130C94AF140E94A11438F00E948C
:1026B000A81420F039F49F3F19F426F40C949E14CA
:1026C0000EF4E095E7FB0C949814E92F0E94C014D7
:1026D00058F3BA17620773078407950720F079F457
:1026E000A6F50C94E2140EF4E0950B2EBA2FA02D53
:1026F0000B01B90190010C01CA01A0011124FF27AF
:10270000591B99F0593F50F4503E68F11A16F040A9
:10271000A22F232F342F4427585FF3CF46953795A8
:102720002795A795F0405395C9F77EF41F16BA0B6D
:10273000620B730B840BBAF09150A1F0FF0FBB1F1B
:10274000661F771F881FC2F70EC0BA0F621F731F64
:10275000841F48F4879577956795B795F7959E3FC1
:1027600008F0B0CF9395880F08F09927EE0F979552
:10277000879508950E94CE130C94AF140E94A8145C
:1027800058F00E94A11440F029F45F3F29F00C9406
:10279000981451110C94E3140C949E140E94C014CC
:1027A00068F39923B1F3552391F3951B550BBB2780
:1027B000AA2762177307840738F09F5F5F4F220FC5
:1027C000331F441FAA1FA9F335D00E2E3AF0E0E8BC
:1027D00032D091505040E695001CCAF72BD0FE2F06
:1027E00029D0660F771F881FBB1F2617370748079A
:1027F000AB07B0E809F0BB0B802DBF01FF27935852
:102800005F4F3AF09E3F510578F00C9498140C9469
:10281000E3145F3FE4F3983ED4F38695779567958C
:10282000B795F7959F5FC9F7880F911D9695879586
:1028300097F90895E1E0660F771F881FBB1F6217A5
:1028400073078407BA0720F0621B730B840BBA0B63
:10285000EE1F88F7E09508950E94C81488F09F57EE
:1028600098F0B92F9927B751B0F0E1F0660F771FB4
:10287000881F991F1AF0BA95C9F714C0B13091F0AA
:102880000E94E214B1E008950C94E214672F782FAF
:102890008827B85F39F0B93FCCF38695779567956F
:1028A000B395D9F73EF490958095709561957F4FDB
:1028B0008F4F9F4F0895E89409C097FB3EF4909581
:1028C0008095709561957F4F8F4F9F4F9923A9F009
:1028D000F92F96E9BB279395F69587957795679598
:1028E000B795F111F8CFFAF4BB0F11F460FF1BC0DC
:1028F0006F5F7F4F8F4F9F4F16C0882311F096E96F
:1029000011C0772321F09EE8872F762F05C066231C
:1029100071F096E8862F70E060E02AF09A95660FD5
:10292000771F881FDAF7880F9695879597F908958E
:1029300097F99F6780E870E060E008959FEF80EC72
:10294000089500240A941616170618060906089515
:1029500000240A9412161306140605060895092E7B
:102960000394000C11F4882352F0BB0F40F4BF2BEA
:1029700011F460FF04C06F5F7F4F8F4F9F4F08952A
:1029800057FD9058440F551F59F05F3F71F0479520
:10299000880F97FB991F61F09F3F79F08795089505
:1029A000121613061406551FF2CF4695F1DF08C024
:1029B000161617061806991FF1CF86957105610541
:1029C00008940895E894BB2766277727CB0197F9E9
:1029D00008950E945B1508F48FEF08950E94011579
:1029E0000C94AF140E94A11438F00E94A81420F097
:1029F000952311F00C9498140C949E1411240C94AB
:102A0000E3140E94C01470F3959FC1F3950F50E03A
:102A1000551F629FF001729FBB27F00DB11D639F90
:102A2000AA27F00DB11DAA1F649F6627B00DA11D36
:102A3000661F829F2227B00DA11D621F739FB00DDC
:102A4000A11D621F839FA00D611D221F749F33274C
:102A5000A00D611D231F849F600D211D822F762FE5
:102A60006A2F11249F5750409AF0F1F088234AF0C2
:102A7000EE0FFF1FBB1F661F771F881F915050402E
:102A8000A9F79E3F510580F00C9498140C94E31420
:102A90005F3FE4F3983ED4F3869577956795B795B5
:102AA000F795E7959F5FC1F7FE2B880F911D9695CF
:102AB000879597F90895990F0008550FAA0BE0E83C
:102AC000FEEF16161706E807F907C0F012161306F0
:102AD000E407F50798F0621B730B840B950B39F430
:102AE0000A2661F0232B242B252B21F408950A2696
:102AF00009F4A140A6958FEF811D811D0895EE0F69
:102B0000FF1F0590F491E02D0994A29FB001B39F9F
:102B1000C001A39F700D811D1124911DB29F700DE6
:102B2000811D1124911D0895FB01DC0102C001905B
:0E2B30000D9241505040D8F70895F894FFCF11
:102B3E0049444C4500546D725100546D72205376C9
:102B4E0063007B2273656E736F72223A2274656D19
:102B5E007065726174757265222C2276616C756572
:102B6E0022007B2273656E736F72223A2261697244
:102B7E00222C2276616C7565220054656D703A00C8
:102B8E004169723A0054696D65720074656D7065C5
:102B9E00726174757265526561645461736B007411
:102BAE00656D706572617475726553656E6454619E
:102BBE00736B00616972526561645461736B00617D
:102BCE00697253656E645461736B007365726961EB
:0E2BDE006C46726F6D4953525461736B000068
:00000001FF
