:100000000C9434000C9451000C9451000C94510049
:100010000C9451000C9451000C9451000C9451001C
:100020000C9451000C9451000C9451000C947302E8
:100030000C9451000C9451000C9451000C945100FC
:100040000C9451000C9451000C94E3090C94510051
:100050000C9451000C9451000C9451000C945100DC
:100060000C9451000C94510011241FBECFEFD8E026
:10007000DEBFCDBF11E0A0E0B1E0E2E0F7E102C0F9
:1000800005900D92A23EB107D9F728E0A2EEB1E0AB
:1000900001C01D92AE33B207E1F70E94EE0A0C9444
:1000A0007F0B0C940000FC010396928381832FEF59
:1000B0003FEF3483238396838583908787831082E1
:1000C0000895FC01118610860895CF93DF939C015B
:1000D000FB01DC011196CD91DC911297D383C28391
:1000E0008C819D81958384838C819D81DC01139615
:1000F0007C936E9312977D836C8331872087F901FF
:1001000080818F5F8083DF91CF910895CF93DF93BC
:10011000EB01488159814F3F2FEF520721F4FC0139
:10012000A781B0850DC0DC01139601C0DF011296D6
:10013000ED91FC9113972081318142175307B0F75D
:100140001296ED91FC911397FB83EA83D583C483C8
:10015000BD83AC831396DC93CE93129799878887DF
:10016000FC0120812F5F2083DF91CF910895CF93F1
:10017000DF93FC01A085B185C281D3818481958103
:100180009D838C83C481D581828193819B838A8363
:1001900011968D919C911297E817F90731F484819B
:1001A000958112969C938E931197118610868C914F
:1001B00081508C93DF91CF910895CF93DF93EC0121
:1001C0000E947C068091E2019091E301892B31F439
:1001D00087EE91E09093E3018093E2012091E401A6
:1001E0003091E501C9018C0F9D1F8B3D45E09407BF
:1001F00070F42817390770F4C091E201D091E3013F
:10020000C20FD31F9093E5018093E40105C0C0E0C5
:10021000D0E002C0C0E0D0E00E943D07CE01DF91F7
:10022000CF910895089531E1FC013083319722E2A6
:1002300020833197A3E3A083319760833197708344
:1002400031971082319760E860833197108231973F
:1002500062E06083319763E06083319764E060839C
:10026000319765E06083319766E06083319767E09E
:100270006083319768E06083319769E060833197EC
:1002800060E1608331973083319732E13083319779
:1002900033E13083319734E13083319735E1308376
:1002A000319736E13083319737E13083319738E148
:1002B0003083319739E13083319730E230833197A1
:1002C00031E2308331972083319723E220833197C5
:1002D000408331975083319726E22083319727E27C
:1002E0002083319728E22083319729E220833197B8
:1002F00020E32083319721E320838697089589EFB7
:1003000090E09093890080938800E0E8F0E080819D
:100310008C7F80838BE080938100EFE6F0E080812A
:1003200082608083A0912608B0912708CD91CDBF2F
:10033000DD91DEBFFF91EF91DF91CF91BF91AF9142
:100340009F918F917F916F915F914F913F912F91ED
:100350001F910F91FF90EF90DF90CF90BF90AF90E3
:100360009F908F907F906F905F904F903F902F90D5
:100370001F900F900FBE0F90089581E008950F9287
:100380000FB6F8940F921F9211242F923F924F9222
:100390005F926F927F928F929F92AF92BF92CF9215
:1003A000DF92EF92FF920F931F932F933F934F9300
:1003B0005F936F937F938F939F93AF93BF93CF93ED
:1003C000DF93EF93FF93A0912608B09127080DB615
:1003D0000D920EB60D920E940F08A0912608B091C2
:1003E0002708CD91CDBFDD91DEBFFF91EF91DF9169
:1003F000CF91BF91AF919F918F917F916F915F91BD
:100400004F913F912F911F910F91FF90EF90DF90AF
:10041000CF90BF90AF909F908F907F906F905F90A4
:100420004F903F902F901F900F900FBE0F90089508
:100430000F920FB6F8940F921F9211242F923F92B1
:100440004F925F926F927F928F929F92AF92BF92E4
:10045000CF92DF92EF92FF920F931F932F933F93D0
:100460004F935F936F937F938F939F93AF93BF93BC
:10047000CF93DF93EF93FF93A0912608B0912708C5
:100480000DB60D920EB60D920E9482060E940F08C4
:10049000A0912608B0912708CD91CDBFDD91DEBF98
:1004A000FF91EF91DF91CF91BF91AF919F918F918C
:1004B0007F916F915F914F913F912F911F910F917C
:1004C000FF90EF90DF90CF90BF90AF909F908F9074
:1004D0007F906F905F904F903F902F901F900F9064
:1004E0000FBE0F9008950E94180218950F931F9346
:1004F000CF93DF93EC01042F1A8D4C8D4423B9F177
:10050000011116C050E08C819D810E94760B2C8DCC
:100510008C819D81820F911D9D838C832A813B81DB
:100520008217930720F1888199819D838C831FC056
:1005300050E08E819F810E94760B8C8D90E091958A
:10054000819591092E813F81280F391F3F832E838A
:10055000488159812417350730F42A813B81820F65
:10056000931F9F838E83023011F4111111501F5F6E
:100570001A8F80E0DF91CF911F910F910895FC01B8
:10058000448D4423A9F050E026813781240F351F84
:1005900037832683828193812817390720F0808151
:1005A000918197838683CB01668177810E94760B48
:1005B0000895EF92FF920F931F93CF938C010FB684
:1005C000F8940F92FC01C68D1C16ACF48189811140
:1005D00006C011C0F8018189811105C00CC07801E5
:1005E000F1E1EF0EF11CC7010E94D50881110E94B4
:1005F0006109C15079F78FEFF801868F0F900FBE18
:100600000FB6F8940F92C58D1C16ACF4808581113D
:1006100006C011C0F8018085811105C00CC07801A9
:10062000F8E0EF0EF11CC7010E94D50881110E946D
:100630006109C15079F78FEFF801858F0F900FBED8
:10064000CF911F910F91FF90EF900895CF93DF937B
:10065000EC010FB6F8940F92488159812C8D30E04F
:100660007B8D729FC001739F900D1124FA01E80FDA
:10067000F91FFB83EA831A8E5D834C83821B930BE5
:10068000840F951F9F838E838FEF8D8F8E8F6111C7
:100690000CC08885882389F0CE0108960E94D50871
:1006A000882359F00E94BF0108C0CE0108960E941D
:1006B0005300CE0141960E9453000F900FBE81E07F
:1006C000DF91CF9108950F931F93CF93DF93082F5E
:1006D000162F6623C1F0869FC00111244F960E94F9
:1006E000DD00EC01009741F415C00B8F1C8F61E019
:1006F000CE010E9426030EC04F9699838883F5CFC2
:10070000D983C883F2CF8FE190E00E94DD00EC0135
:10071000892BB1F7CE01DF91CF911F910F910895F1
:10072000EF92FF920F931F93CF93DF938A01FC0107
:10073000528D338D531710F02230F1F4422F78018F
:10074000EC011E8D0E9476021F3F81F48989882367
:10075000A9F0CE0141960E94D508882389F0E114C2
:10076000F10481F081E0F70180830DC0FF24F39450
:10077000F10EFE8E81E007C080E005C081E003C07D
:1007800081E001C081E0DF91CF911F910F91FF9037
:10079000EF9008958F929F92AF92BF92CF92DF9287
:1007A000EF92FF920F931F93CF93DF9300D000D06F
:1007B0001F92CDB7DEB78C015B015D834C83822E27
:1007C000E12C992493946C0181E1C80ED11C0FB6E1
:1007D000F8940F92F801F28CFF2041F1C680D78087
:1007E000B501C8010E94BF0281100FC0FA94F80140
:1007F000F28E80858823B1F0C80108960E94D50842
:10080000882381F00E94BF010DC0F801D782C68203
:100810008189882339F0C80141960E94D508811149
:100820000E94BF010F900FBE81E057C08C819D8157
:10083000892B21F40F900FBE80E04FC0E11005C05E
:10084000CE0101960E941D09E92C0F900FBE0E9457
:100850007C060FB6F8940F92F801858D8F3F09F44E
:10086000158EF801868D8F3F09F4168E0F900FBEFE
:10087000BE016C5F7F4FCE0101960E942809811155
:100880001EC00FB6F8940F92F801828D0F900FBE24
:1008900081110FC06C817D81C6010E94C308C8010F
:1008A0000E94D9020E943D07811191CF0E94BF0191
:1008B0008ECFC8010E94D9020E943D0788CFC8018F
:1008C0000E94D9020E943D070FB6F8940F92F801DA
:1008D000828D0F900FBE81117ACF0F900F900F90E5
:1008E0000F900F90DF91CF911F910F91FF90EF909C
:1008F000DF90CF90BF90AF909F908F900895E09140
:10090000EE07F091EF078081811107C08FEF9FEF15
:100910009093C6078093C5070895E091EE07F09184
:10092000EF070580F681E02D0680F781E02D8281BA
:1009300093819093C6078093C5070895FF920F9304
:100940001F93CF93DF93EC01F62E0091CD0710910A
:10095000CE07809126089091270802960E94B70042
:10096000CF3F8FEFD80769F4FF2059F06091260838
:10097000709127086E5F7F4F80ED97E00E946500C1
:100980002FC0C00FD11FE0912608F0912708D38314
:10099000C283C017D10768F46091260870912708B8
:1009A0008091EC079091ED076E5F7F4F0E9486006B
:1009B00017C060912608709127088091EE079091EA
:1009C000EF076E5F7F4F0E9486008091C507909170
:1009D000C607C817D90720F4D093C607C093C50728
:1009E000DF91CF911F910F91FF9008954F925F92E9
:1009F0006F927F928F929F92AF92BF92CF92DF922F
:100A0000EF92FF920F93CF93DF934C016B015A014A
:100A10002901CA010E94DD003C01892B09F4E2C0D2
:100A200086E290E00E94DD00EC01892B71F0788E67
:100A30006F8A81E0A81AB108A60CB71CD6018C9168
:100A4000898F8C91811105C018C0C3010E941201C9
:100A5000C9C0AE01465E5F4FF6013196B8E0CB0EDD
:100A6000D11CCF012191DA012D93AD01DC018C91D4
:100A7000882319F0EC15FD05A1F718A2043008F041
:100A800003E00E8B6E01B2E0CB0ED11CC6010E94BA
:100A90006100CE010C960E946100D987C88784E06E
:100AA00090E0801B91099D878C87DB8BCA8B19A2F4
:100AB0001AA21BA21CA21DA2A201B401C5010E9480
:100AC000130199838883E114F10419F0F701D183AC
:100AD000C0830FB6F8940F928091CF078F5F8093F9
:100AE000CF078091260890912708892BD1F5D093C4
:100AF0002708C09326088091CF07813009F041C0B4
:100B000082E098E00E9453008BE098E00E9453003E
:100B100084E198E00E9453008DE198E00E94530028
:100B200089EF97E00E94530080EF97E00E94530006
:100B300083EE97E00E9453008AED97E00E945300F5
:100B400080ED97E00E94530089EF97E09093EF07C4
:100B50008093EE0780EF97E09093ED078093EC078A
:100B600010C08091CB0781110CC0E0912608F09154
:100B7000270896898E89891720F0D0932708C0937B
:100B800026088091C7078F5F8093C7078E89909151
:100B9000CC07981710F48093CC0790E09C01220FAB
:100BA000331F220F331F220F331F820F931FB601F3
:100BB0008E5F974F0E9465000F900FBE8091CB070C
:100BC000882361F0E0912608F091270896898E89A4
:100BD000981730F40E94BF0181E005C081E003C096
:100BE00081E001C08FEFDF91CF910F91FF90EF90E7
:100BF000DF90CF90BF90AF909F908F907F906F903D
:100C00005F904F9008950F931F93CF93DF930097BA
:100C100009F443C0209126083091270882179307D2
:100C200009F43BC00FB6F8940F92FC01228533857E
:100C3000205D374081F5FC0124893589F7E0233EAA
:100C40003F0749F1232B39F5EC018C010E5F1F4F53
:100C5000C8010E94B7008E899091CC07981710F4B4
:100C60008093CC0790E09C01220F331F220F331F8B
:100C7000220F331F820F931FB8018E5F974F0E9480
:100C80006500E0912608F09127089E8986899817CB
:100C900010F00E94BF010F900FBEDF91CF911F9106
:100CA0000F910895EF92FF920F930F2EF3ECEF2E1A
:100CB000F7E0FF2EF02D00E020E030E045E550E0C9
:100CC00060E071E080ED97E00E94F604813081F4ED
:100CD000F8948FEF9FEF9093C6078093C50781E04C
:100CE0008093CB071092CE071092CD070E947F0110
:100CF0000F91FF90EF9008958091C2078F5F8093CE
:100D0000C2070895CF92DF92EF92FF920F931F9345
:100D1000CF93DF938091C207811199C0E090CD07F6
:100D2000F090CE078FEFE81AF80AF092CE07E09223
:100D3000CD07E114F104B9F48091EE079091EF072B
:100D40002091EC073091ED073093EF072093EE07E9
:100D50009093ED078093EC078091C8078F5F809395
:100D6000C8070E947F048091C5079091C607E816C6
:100D7000F90610F4D12C53C0D12CCC24C394E091AB
:100D8000EE07F091EF078081811107C08FEF9FEF91
:100D90009093C6078093C50742C0E091EE07F0919B
:100DA000EF070580F681E02DC681D7818A819B817E
:100DB000E816F90628F49093C6078093C5072FC05C
:100DC0008E010E5F1F4FC8010E94B7008C899D895C
:100DD000892B21F0CE010C960E94B7008E8990914C
:100DE000CC07981710F48093CC0790E09C01220F59
:100DF000331F220F331F220F331F820F931FB8019F
:100E00008E5F974F0E946500E0912608F0912708B9
:100E10009E898689981708F4B2CFDC2CB0CFE09178
:100E20002608F0912708868990E0FC01EE0FFF1F4D
:100E3000EE0FFF1FEE0FFF1F8E0F9F1FFC01EE5FD7
:100E4000F74F8081823048F0DD24D39406C0809132
:100E5000CA078F5F8093CA07D12C8091C907882366
:100E600011F0DD24D3948D2DDF91CF911F910F913F
:100E7000FF90EF90DF90CF900895DF92EF92FF9276
:100E80000F931F93CF93DF930FB6F8940F92809137
:100E9000C20781508093C2078091C20781115FC051
:100EA0008091CF07811133C05DC0D7011596ED91B8
:100EB000FC911697C681D781CE010C960E94B7008F
:100EC0008E010E5F1F4FC8010E94B7008E8990915E
:100ED000CC07981710F48093CC0790E09C01220F68
:100EE000331F220F331F220F331F820F931FB801AE
:100EF0008E5F974F0E946500E0912608F0912708C9
:100F00009E898689981768F0D092C9070AC0C0E008
:100F1000D0E00F2EF3EEEF2EF7E0FF2EF02DDD24C4
:100F2000D394F70180818111C0CFCD2B11F00E94A5
:100F30007F04C091CA07CC2351F0D1E00E94820601
:100F40008111D093C907C150C9F71092CA07809187
:100F5000C907882331F00E94BF0181E003C080E00F
:100F600001C080E00F900FBEDF91CF911F910F91D4
:100F7000FF90EF90DF900895CF93DF93EC01892BE2
:100F800051F00E947C0660E0CE010E949E040E9407
:100F90003D07811102C00E94BF01DF91CF910895EA
:100FA0000AED17E00F2EF2E0EF2EF8E0FF2EF02D05
:100FB00029C00E947C06D801CC910E943D07CC2319
:100FC00009F10FB6F8940F92D8011596ED91FC91A6
:100FD0001697C681D781CE0102960E94B7008091F4
:100FE000CF0781508093CF078091D907815080939C
:100FF000D9070F900FBE8F89988D0E941201CE01E4
:101000000E9412018091D9078111D3CFF70180810D
:10101000823010F00E94BF010E94750BF3CF8091C7
:10102000C207882321F081E08093C90708951092B8
:10103000C9072091CC07822F90E0FC01EE0FFF1F23
:10104000EE0FFF1FEE0FFF1FE80FF91FEE5FF74FC8
:101050003081311111C02150822F90E0FC01EE0F40
:10106000FF1FEE0FFF1FEE0FFF1FE80FF91FEE5FD0
:10107000F74F3081332379F3AC01440F551F440FF0
:10108000551F440F551F480F591FDA01AE5FB74F68
:101090001196ED91FC9112970280F381E02D12964A
:1010A000FC93EE9311974B5F574FE417F50729F424
:1010B00042815381FD0152834183FC01EE0FFF1FEA
:1010C000EE0FFF1FEE0FFF1F8E0F9F1FFC01EE5F45
:1010D000F74F0180F281E02D868197819093270858
:1010E000809326082093CC0708950F931F93CF93E6
:1010F000DF93EC010FB6F8940F92892B21F4C09185
:101100002608D09127088E010E5F1F4FC8010E944C
:10111000B7008C899D89892B21F0CE010C960E9405
:10112000B700B80180ED97E00E9465000F900FBEF8
:101130008091CB07882339F00FB6F8940F920E9464
:101140007F040F900FBE8091260890912708C81742
:10115000D907A1F48091CB07882319F00E94BF0121
:101160000DC08091CF079091D007981305C01092C1
:1011700027081092260802C00E940F08DF91CF9125
:101180001F910F910895CF93DF93EB016091260893
:1011900070912708645F7F4F0E94860061E0CE0156
:1011A0000E949E04DF91CF9108950F931F93CF93D8
:1011B000DF93DC011596ED91FC911697C681D781DE
:1011C0008E01045F1F4FC8010E94B7008091C207C3
:1011D00081111CC00A501109C8010E94B7008E89F4
:1011E0009091CC07981710F48093CC0790E09C0165
:1011F000220F331F220F331F220F331F820F931F23
:10120000B8018E5F974F0E94650005C0B80183EE5C
:1012100097E00E946500E0912608F09127089E89DA
:101220008689891720F481E08093C90701C080E096
:10123000DF91CF911F910F9108952091C807FC0174
:1012400020832091CD073091CE07328321830895EA
:101250000FB6F8940F924091CD075091CE07DB0165
:101260002D913C912F3FBFEF3B0719F1E091C8074B
:10127000DC01FC91FE1739F01196ED91FC9112976B
:101280004E175F07C0F4DC011196ED91FC911297A7
:10129000DA01AE1BBF0BA217B30778F4DB01E41B26
:1012A000F50B2E0F3F1F2D933C930E941D0980E0EC
:1012B00005C080E003C081E001C081E00F900FBE57
:1012C000089581E08093C907089580E090E00E942E
:1012D000750810922D0810922C088091300890917A
:1012E00031080E94750880912E0890912F080E9465
:1012F0007508EBCF80E090E00E9475085B982D9810
:10130000F9CFC1E0D0E080E090E00E947508D09372
:101310002D08C0932C0880913008909131080E94CC
:10132000030680912E0890912F080E940306EBCFB0
:1013300080912A0890912B08892B29F480E090E075
:101340000E947508F5CF5B9A81E090E00E94BC078F
:101350005B9881E090E00E94BC07EACF809128086A
:1013600090912908892B29F480E090E00E9475086B
:10137000F5CF5D9AC5E0D0E05B9A5C988DE190E096
:101380000E94BC075B985C9A8DE190E00E94BC07CC
:10139000219791F75D9882E390E00E94BC07DECF31
:1013A00080E090E00E9475085B9A8DE399E40197D4
:1013B000F1F700C000005B9889E698E10197F1F72A
:1013C00000C00000EDCF1F920F920FB60F921124B4
:1013D0002F933F934F935F936F937F938F939F933D
:1013E000AF93BF93EF93FF93CF93DF9300D0CDB72D
:1013F000DEB78091C60089831A8220E0AE014E5F7D
:101400005F4FBE016F5F7F4F80913C0890913D0818
:101410000E9490038A8181110E94BF010F900F905A
:10142000DF91CF91FF91EF91BF91AF919F918F91FC
:101430007F916F915F914F913F912F910F900FBED0
:101440000F901F9018951092C50087E68093C400F6
:1014500088E98093C10086E08093C2000895E0ECA3
:10146000F0E0908195FFFDCF8093C6000895CF9363
:10147000DF93EC018881882339F0219690E00E9467
:101480002F0A89918111FACFDF91CF910895CF93DF
:10149000DF9300D0CDB7DEB7EE24E394F12C20E04B
:1014A0004FEF5FEFBE016F5F7F4F80913C089091DF
:1014B0003D080E94CA0309811A81005311091127AE
:1014C00002301105C1F13CF40115110571F0013034
:1014D000110521F16CC00430110509F44AC0D4F1A2
:1014E0000530110509F454C062C085E091E00E9406
:1014F000370AF0922B08E0922A08F0922908E0922D
:10150000280880913008909131080E94030680914C
:101510002E0890912F080E940306C1CF86E191E02A
:101520000E94370A10922B0810922A08109229085C
:1015300010922808B4CF88E291E00E94370AF09216
:101540002B08E0922A0880913008909131080E947F
:101550000306A5CF8AE391E00E94370A10922B0878
:1015600010922A0880913008909131080E947508E5
:1015700096CF8DE491E00E94370AF0922908E0921C
:10158000280880912E0890912F080E94030687CF8B
:101590008CE591E00E94370A1092290810922808E1
:1015A00080912E0890912F080E94750878CF8CE6C4
:1015B00091E00E94370A8DE791E00E94370AC80146
:1015C0000E94370A87E891E00E94370AC8010E940A
:1015D0002F0A8BE791E00E94370A61CF0E94230A0D
:1015E0008FEF8AB9259A81E991E00E94370A40E09D
:1015F00062E08AE00E94630390933D0880933C0878
:101600000F2EFAE3EF2EF8E0FF2EF02D00E020E0A1
:1016100030E045E550E069E971E080ED99E00E9435
:10162000F6040F2EF8E3EF2EF8E0FF2EF02D20E069
:1016300030E045E550E06FE971E08AE799E00E940B
:10164000F6040F2EF4E3EF2EF8E0FF2EF02D20E04D
:1016500030E045E550E069EA71E081E899E00E94F8
:10166000F6040F2EF2E3EF2EF8E0FF2EF02D20E02F
:1016700030E045E550E061EB71E085E699E00E94DD
:10168000F6040F2EF0E3EF2EF8E0FF2EF02D20E011
:1016900030E045E550E06AEB71E088E999E00E94AE
:1016A000F6040F2EFEE2EF2EF8E0FF2EF02D20E0E4
:1016B00030E045E550E065EC71E08EEA99E00E948B
:1016C000F6040F2EF6E3EF2EF8E0FF2EF02D20E0CB
:1016D00030E045E550E06DEC71E087E49AE00E946F
:1016E000F60478940E945206FFCF0895FB01DC01B6
:1016F00002C001900D9241505040D8F70895F894DF
:02170000FFCF19
:1017020049444C450053544154453A20416C61725E
:101712006D204F4E0A0053544154453A20416C61AA
:10172200726D204F46460A0053544154453A2042B6
:10173200757A7A6572204F4E0A0053544154453AE5
:101742002042757A7A6572204F46460A0053544108
:1017520054453A2046616E204F4E0A00535441547C
:10176200453A2046616E204F46460A0057726F6E18
:101772006720636F6D6D616E642E200A0053747270
:10178200696E673A200A000A20436861723A200AA9
:10179200004D61696E2E200A00626C696E6B0073E7
:1017A200746F70426C696E6B00616C61726D4F4E4A
:1017B20000616C61726D4F46460062757A7A65729D
:1017C2005461736B0066616E5461736B0073657272
:1017D20069616C496E746572727570745461736B71
:0217E200000005
:00000001FF
