S017000041726475696E6F4672656552544F532E7372656371
S11300000C943E000C945B000C945B000C945B001D
S11300100C945B000C945B000C945B000C945B00F0
S11300200C945B000C945B000C945B000C947D02BC
S11300300C945B000C945B000C945B000C945B00D0
S11300400C945B000C945B000C94AD110C945B005D
S11300500C945B000C945B000C945B000C945B00B0
S11300600C945B000C945B006C0C6C0C6C0CA70C7B
S1130070950CA40C6C0C6C0CA70C950C11241FBED5
S1130080CFEFD8E0DEBFCDBF12E0A0E0B1E0E0ECFE
S1130090FAE202C005900D92A638B107D9F728E01C
S11300A0A6E8B2E001C01D92AB3AB207E1F70E94A4
S11300B0B3100C945E150C940000FC01039692831B
S11300C081832FEF3FEF3483238396838583908747
S11300D0878310820895FC01118610860895CF93BA
S11300E0DF939C01FB01DC011196CD91DC91129709
S11300F0D383C2838C819D81958384838C819D81EC
S1130100DC0113967C936E9312977D836C83318705
S11301102087F90180818F5F8083DF91CF910895DB
S1130120CF93DF93EB01488159814F3F2FEF520763
S113013021F4FC01A781B0850DC0DC01139601C038
S1130140DF011296ED91FC911397208131814217C2
S11301505307B0F71296ED91FC911397FB83EA8352
S1130160D583C483BD83AC831396DC93CE9312975B
S113017099878887FC0120812F5F2083DF91CF91AD
S11301800895CF93DF93FC01A085B185C281D3810B
S1130190848195819D838C83C481D581828193815F
S11301A09B838A8311968D919C911297E817F90786
S11301B031F48481958112969C938E9311971186C4
S11301C010868C9181508C93DF91CF910895CF93B9
S11301D0DF93EC010E94550780918602909187027B
S11301E0892B31F48BE892E0909387028093860206
S11301F02091880230918902C9018C0F9D1F873795
S113020045E0940770F42817390770F4C09186020A
S1130210D0918702C20FD31F9093890280938802E2
S113022005C0C0E0D0E002C0C0E0D0E00E942008D9
S1130230CE01DF91CF910895089531E1FC0130831F
S1130240319722E220833197A3E3A083319760831F
S11302503197708331971082319760E860833197CA
S11302601082319762E06083319763E06083319755
S113027064E06083319765E06083319766E0608372
S1130280319767E06083319768E06083319769E074
S11302906083319760E1608331973083319732E135
S11302A03083319733E13083319734E130833197B0
S11302B035E13083319736E13083319737E130834C
S11302C0319738E13083319739E13083319730E227
S11302D03083319731E2308331972083319723E2A1
S11302E020833197408331975083319726E22083CE
S11302F0319727E22083319728E22083319729E23E
S11303002083319720E32083319721E3208386974C
S1130310089589EF90E09093890080938800E0E845
S1130320F0E080818C7F80838BE080938100EFE616
S1130330F0E0808182608083A0916608B0916708B4
S1130340CD91CDBFDD91DEBFFF91EF91DF91CF91D4
S1130350BF91AF919F918F917F916F915F914F91D9
S11303603F912F911F910F91FF90EF90DF90CF90CD
S1130370BF90AF909F908F907F906F905F904F90C1
S11303803F902F901F900F900FBE0F90089581E023
S113039008950F920FB6F8940F921F9211242F9282
S11303A03F924F925F926F927F928F929F92AF9201
S11303B0BF92CF92DF92EF92FF920F931F932F93EE
S11303C03F934F935F936F937F938F939F93AF93D9
S11303D0BF93CF93DF93EF93FF93A0916608B091FF
S11303E067080DB60D920EB60D920E94F208A09108
S11303F06608B0916708CD91CDBFDD91DEBFFF9156
S1130400EF91DF91CF91BF91AF919F918F917F91A8
S11304106F915F914F913F912F911F910F91FF9099
S1130420EF90DF90CF90BF90AF909F908F907F9090
S11304306F905F904F903F902F901F900F900FBE42
S11304400F9008950F920FB6F8940F921F921124F3
S11304502F923F924F925F926F927F928F929F92D0
S1130460AF92BF92CF92DF92EF92FF920F931F93BE
S11304702F933F934F935F936F937F938F939F93A8
S1130480AF93BF93CF93DF93EF93FF93A09166084D
S1130490B09167080DB60D920EB60D920E946507D5
S11304A00E94F208A0916608B0916708CD91CDBF73
S11304B0DD91DEBFFF91EF91DF91CF91BF91AF91BD
S11304C09F918F917F916F915F914F913F912F9168
S11304D01F910F91FF90EF90DF90CF90BF90AF905E
S11304E09F908F907F906F905F904F903F902F9050
S11304F01F900F900FBE0F9008950E94220218952E
S11305000F931F93CF93DF93EC01042F1A8D4C8D1F
S11305104423B9F1011116C050E08C819D810E94E1
S113052055152C8D8C819D81820F911D9D838C830B
S11305302A813B818217930720F1888199819D83C9
S11305408C831FC050E08E819F810E9455158C8D35
S113055090E09195819591092E813F81280F391F53
S11305603F832E83488159812417350730F42A812B
S11305703B81820F931F9F838E83023011F41111EC
S113058011501F5F1A8F80E0DF91CF911F910F915F
S11305900895FC01448D4423A9F050E0268137815D
S11305A0240F351F378326838281938128173907C7
S11305B020F08081918197838683CB016681778146
S11305C00E9455150895EF92FF920F931F93CF93B6
S11305D08C010FB6F8940F92FC01C68D1C16ACF476
S11305E08189811106C011C0F8018189811105C07A
S11305F00CC07801F1E1EF0EF11CC7010E94D10992
S113060081110E945D0AC15079F78FEFF801868F3E
S11306100F900FBE0FB6F8940F92C58D1C16ACF454
S11306208085811106C011C0F8018085811105C043
S11306300CC07801F8E0EF0EF11CC7010E94D1094B
S113064081110E945D0AC15079F78FEFF801858FFF
S11306500F900FBECF911F910F91FF90EF900895CF
S1130660CF93DF93EC010FB6F8940F924881598130
S11306702C8D30E07B8D729FC001739F900D1124EF
S1130680FA01E80FF91FFB83EA831A8E5D834C831A
S1130690821B930B840F951F9F838E838FEF8D8F07
S11306A08E8F61110CC08885882389F0CE0108964D
S11306B00E94D109882359F00E94C90108C0CE01C3
S11306C008960E945D00CE0141960E945D000F9045
S11306D00FBE81E0DF91CF9108950F931F93CF93C5
S11306E0DF93082F162F6623C1F0869FC0011124C3
S11306F04F960E94E700EC01009741F415C00B8F60
S11307001C8F61E0CE010E9430030EC04F96998386
S11307108883F5CFD983C883F2CF8FE190E00E941C
S1130720E700EC01892BB1F7CE01DF91CF911F9146
S11307300F9108959F92AF92BF92CF92DF92EF9262
S1130740FF920F931F93CF93DF9300D000D01F929B
S1130750CDB7DEB78C016B015D834C83A22EB12C27
S1130760992493947C0188E0E80EF11C0FB6F89468
S11307700F92F801928D838D981718F0F2E0AF1262
S113078019C04A2DB601C8010E948002F80191895E
S1130790992349F0C80141960E94D109882331F078
S11307A00E94C90103C081110E94C9010F900FBEAC
S11307B081E050C08C819D81892B21F40F900FBE64
S11307C080E048C0B11005C0CE0101960E94190A0C
S11307D0B92C0F900FBE0E9455070FB6F8940F92D4
S11307E0F801858D8F3F09F4158EF801868D8F3FB2
S11307F009F4168E0F900FBEBE016C5F7F4FCE01C1
S113080001960E94240A81111FC00FB6F8940F921A
S1130810F801928D0F900FBE838D98130FC06C81D9
S11308207D81C7010E94A609C8010E94E3020E94BB
S1130830200881119BCF0E94C90198CFC8010E9452
S1130840E3020E94200892CFC8010E94E3020E94A2
S1130850200880E00F900F900F900F900F90DF9181
S1130860CF911F910F91FF90EF90DF90CF90BF90A9
S1130870AF909F900895EF92FF920F931F93CF93A1
S1130880DF938A01FC01528D338D531710F022300F
S1130890F1F4422F7801EC011E8D0E9480021F3F6B
S11308A081F489898823A9F0CE0141960E94D10957
S11308B0882389F0E114F10481F081E0F701808359
S11308C00DC0FF24F394F10EFE8E81E007C080E09A
S11308D005C081E003C081E001C081E0DF91CF91D8
S11308E01F910F91FF90EF9008958F929F92AF9276
S11308F0BF92CF92DF92EF92FF920F931F93CF9309
S1130900DF9300D000D01F92CDB7DEB78C015B011E
S11309105D834C83822EE12C992493946C0181E1B4
S1130920C80ED11C0FB6F8940F92F801F28CFF2078
S113093041F1C680D780B501C8010E94C902811067
S11309400FC0FA94F801F28E80858823B1F0C801B3
S113095008960E94D109882381F00E94C9010DC024
S1130960F801D782C6828189882339F0C80141966B
S11309700E94D10981110E94C9010F900FBE81E02C
S113098057C08C819D81892B21F40F900FBE80E08C
S11309904FC0E11005C0CE0101960E94190AE92C4E
S11309A00F900FBE0E9455070FB6F8940F92F801EE
S11309B0858D8F3F09F4158EF801868D8F3F09F4DC
S11309C0168E0F900FBEBE016C5F7F4FCE01019655
S11309D00E94240A81111EC00FB6F8940F92F801E8
S11309E0828D0F900FBE81110FC06C817D81C60175
S11309F00E94A609C8010E94E3020E9420088111F6
S1130A0091CF0E94C9018ECFC8010E94E3020E94C7
S1130A10200888CFC8010E94E3020E9420080FB674
S1130A20F8940F92F801828D0F900FBE81117ACF46
S1130A300F900F900F900F900F90DF91CF911F9117
S1130A400F91FF90EF90DF90CF90BF90AF909F9069
S1130A508F9008952091840830918508232B31F4D8
S1130A60E4E8F8E071836083938382830895CF93ED
S1130A70DF93EC010FB6F8940F928D8D8F3F09F43C
S1130A801D8E8E8D8F3F09F41E8E0F900FBE8A8DA2
S1130A90811104C0CE0141960E94B809CE010E9482
S1130AA0E302DF91CF910895E0912E08F0912F0891
S1130AB08081811107C08FEF9FEF90930608809388
S1130AC005080895E0912E08F0912F080580F6811D
S1130AD0E02D0680F781E02D8281938190930608B2
S1130AE0809305080895FF920F931F93CF93DF938C
S1130AF0EC01F62E00910D0810910E088091660805
S1130B009091670802960E94C100CF3F8FEFD807EB
S1130B1069F4FF2059F060916608709167086E5F70
S1130B207F4F80E198E00E946F002FC0C00FD11F5B
S1130B30E0916608F0916708D383C283C017D10798
S1130B4068F4609166087091670880912C08909110
S1130B502D086E5F7F4F0E94900017C06091660859
S1130B607091670880912E0890912F086E5F7F4FD7
S1130B700E9490008091050890910608C817D90733
S1130B8020F4D0930608C0930508DF91CF911F91FC
S1130B900F91FF9008954F925F926F927F928F9280
S1130BA09F92AF92BF92CF92DF92EF92FF920F93F8
S1130BB0CF93DF934C016B015A012901CA010E94B2
S1130BC0E7003C01892B09F4E2C086E290E00E9430
S1130BD0E700EC01892B71F0788E6F8A81E0A81A06
S1130BE0B108A60CB71CD6018C91898F8C91811108
S1130BF005C018C0C3010E941C01C9C0AE01465EF5
S1130C005F4FF6013196B8E0CB0ED11CCF01219194
S1130C10DA012D93AD01DC018C91882319F0EC15D8
S1130C20FD05A1F718A2043008F003E00E8B6E0155
S1130C30B2E0CB0ED11CC6010E946B00CE010C9613
S1130C400E946B00D987C88784E090E0801B9109DB
S1130C509D878C87DB8BCA8B19A21AA21BA21CA2AC
S1130C601DA2A201B401C5010E941D0199838883BC
S1130C70E114F10419F0F701D183C0830FB6F8949D
S1130C800F9280910F088F5F80930F088091660800
S1130C9090916708892BD1F5D0936708C0936608B3
S1130CA080910F08813009F041C082E498E00E94ED
S1130CB05D008BE498E00E945D0084E598E00E946A
S1130CC05D008DE598E00E945D0089E398E00E9454
S1130CD05D0080E398E00E945D0083E298E00E945A
S1130CE05D008AE198E00E945D0080E198E00E9446
S1130CF05D0089E398E090932F0880932E0880E3A9
S1130D0098E090932D0880932C0810C080910B08D4
S1130D1081110CC0E0916608F091670896898E896C
S1130D20891720F0D0936708C0936608809107085C
S1130D308F5F809307088E8990910C08981710F4A0
S1130D4080930C0890E09C01220F331F220F331F65
S1130D50220F331F820F931FB6018E5B974F0E94A1
S1130D606F000F900FBE80910B08882361F0E09113
S1130D706608F091670896898E89981730F40E9466
S1130D80C90181E005C081E003C081E001C08FEFAB
S1130D90DF91CF910F91FF90EF90DF90CF90BF90B4
S1130DA0AF909F908F907F906F905F904F90089539
S1130DB00F931F93CF93DF93009709F443C02091BF
S1130DC06608309167088217930709F43BC00FB691
S1130DD0F8940F92FC01228533852051384081F527
S1130DE0FC0124893589F8E023323F0749F1232B9C
S1130DF039F5EC018C010E5F1F4FC8010E94C10040
S1130E008E8990910C08981710F480930C0890E048
S1130E109C01220F331F220F331F220F331F820F17
S1130E20931FB8018E5B974F0E946F00E091660894
S1130E30F09167089E898689981710F00E94C9016D
S1130E400F900FBEDF91CF911F910F910895EF92F4
S1130E50FF920F930F2EF3E0EF2EF8E0FF2EF02D0C
S1130E6000E020E030E045E550E066E071E083EB2F
S1130E7098E00E94CB058130A1F40E94CD0A813014
S1130E8081F4F8948FEF9FEF909306088093050800
S1130E9081E080930B0810920E0810920D080E94B6
S1130EA089010F91FF90EF900895809102088F5F60
S1130EB08093020808950FB6F8940F9280910D085C
S1130EC090910E080F900FBE0895CF92DF92EF928B
S1130ED0FF920F931F93CF93DF93809102088111A8
S1130EE099C0E0900D08F0900E088FEFE81AF80A08
S1130EF0F0920E08E0920D08E114F104B9F4809127
S1130F002E0890912F0820912C0830912D083093B1
S1130F102F0820932E0890932D0880932C088091FD
S1130F2008088F5F809308080E9454058091050883
S1130F3090910608E816F90610F4D12C53C0D12C70
S1130F40CC24C394E0912E08F0912F088081811164
S1130F5007C08FEF9FEF909306088093050842C067
S1130F60E0912E08F0912F080580F681E02DC681CE
S1130F70D7818A819B81E816F90628F490930608A4
S1130F80809305082FC08E010E5F1F4FC8010E9479
S1130F90C1008C899D89892B21F0CE010C960E9479
S1130FA0C1008E8990910C08981710F480930C0856
S1130FB090E09C01220F331F220F331F220F331F97
S1130FC0820F931FB8018E5B974F0E946F00E091D0
S1130FD06608F09167089E898689981708F4B2CF4D
S1130FE0DC2CB0CFE0916608F0916708868990E028
S1130FF0FC01EE0FFF1FEE0FFF1FEE0FFF1F8E0F02
S11310009F1FFC01EE5BF74F8081823048F0DD24A6
S1131010D39406C080910A088F5F80930A08D12C6C
S113102080910908882311F0DD24D3948D2DDF915C
S1131030CF911F910F91FF90EF90DF90CF90089583
S1131040DF92EF92FF920F931F93CF93DF930FB62C
S1131050F8940F9280910208815080930208809145
S1131060020881115FC080910F08811133C05DC0F7
S1131070D7011596ED91FC911697C681D781CE01C3
S11310800C960E94C1008E010E5F1F4FC8010E9482
S1131090C1008E8990910C08981710F480930C0865
S11310A090E09C01220F331F220F331F220F331FA6
S11310B0820F931FB8018E5B974F0E946F00E091DF
S11310C06608F09167089E898689981768F0D0921F
S11310D009080AC0C0E0D0E00F2EF3E2EF2EF8E0DA
S11310E0FF2EF02DDD24D394F70180818111C0CF30
S11310F0CD2B11F00E945405C0910A08CC2351F065
S1131100D1E00E9465078111D0930908C150C9F745
S113111010920A0880910908882331F00E94C901BD
S113112081E003C080E001C080E00F900FBEDF913A
S1131130CF911F910F91FF90EF90DF900895CF937F
S1131140DF93EC01892B51F00E94550760E0CE013A
S11311500E9473050E942008811102C00E94C901E7
S1131160DF91CF9108950AE118E00F2EF2E4EF2EFB
S1131170F8E0FF2EF02D29C00E945507D801CC912C
S11311800E942008CC2309F10FB6F8940F92D801DD
S11311901596ED91FC911697C681D781CE010296E2
S11311A00E94C10080910F08815080930F088091A4
S11311B019088150809319080F900FBE8F89988D5C
S11311C00E941C01CE010E941C018091190881110A
S11311D0D3CFF7018081823010F00E94C9010E94B0
S11311E0AC11F3CF80910208882321F081E0809331
S11311F0090808951092090820910C08822F90E0A4
S1131200FC01EE0FFF1FEE0FFF1FEE0FFF1FE80F95
S1131210F91FEE5BF74F3081311111C02150822F3D
S113122090E0FC01EE0FFF1FEE0FFF1FEE0FFF1FFC
S1131230E80FF91FEE5BF74F3081332379F3AC01EC
S1131240440F551F440F551F440F551F480F591F76
S1131250DA01AE5BB74F1196ED91FC9112970280C3
S1131260F381E02D1296FC93EE9311974B5B574F4D
S1131270E417F50729F442815381FD015283418328
S1131280FC01EE0FFF1FEE0FFF1FEE0FFF1F8E0F6F
S11312909F1FFC01EE5BF74F0180F281E02D8681F8
S11312A09781909367088093660820930C080895AB
S11312B00F931F93CF93DF93EC010FB6F8940F9223
S11312C0892B21F4C0916608D09167088E010E5FC6
S11312D01F4FC8010E94C1008C899D89892B21F070
S11312E0CE010C960E94C100B80180E198E00E94F2
S11312F06F000F900FBE80910B08882339F00FB652
S1131300F8940F920E9454050F900FBE80916608C6
S113131090916708C817D907A1F480910B08882316
S113132019F00E94C9010DC080910F089091100816
S1131330981305C0109267081092660802C00E94B4
S1131340F208DF91CF911F910F910895CF93DF930E
S1131350EB016091660870916708645F7F4F0E949B
S1131360900061E0CE010E947305DF91CF91089552
S11313700F931F93CF938B01C42F609166087091D4
S11313806708645F7F4F0E946F00CC2311F00FEF5A
S11313901FEF6C2FC8010E947305CF911F910F910D
S11313A008950F931F93CF93DF93DC011596ED916E
S11313B0FC911697C681D7818E01045F1F4FC80127
S11313C00E94C1008091020881111CC00A501109B9
S11313D0C8010E94C1008E8990910C08981710F4DE
S11313E080930C0890E09C01220F331F220F331FBF
S11313F0220F331F820F931FB8018E5B974F0E94F9
S11314006F0005C0B80183E298E00E946F00E0918C
S11314106608F09167089E898689891720F481E01F
S11314208093090801C080E0DF91CF911F910F9153
S1131430089520910808FC01208320910D08309123
S11314400E083283218308950FB6F8940F924091C9
S11314500D0850910E08DB012D913C912F3FBFEFF9
S11314603B0719F1E0910808DC01FC91FE1739F003
S11314701196ED91FC9112974E175F07C0F4DC01B1
S11314801196ED91FC911297DA01AE1BBF0BA217D6
S1131490B30778F4DB01E41BF50B2E0F3F1F2D93EC
S11314A03C930E94190A80E005C080E003C081E0FB
S11314B001C081E00F900FBE089581E08093090878
S11314C0089580910B08882331F0809102088823C5
S11314D021F080E0089581E0089582E00895FC0100
S11314E073836283918780874617570790F0421B66
S11314F0530B8485958548175907E0F4BF016E5F47
S11315007F4F80916E0890916F080E94900080E058
S113151008954217530718F46217730768F4BF015C
S11315206E5F7F4F80917008909171080E949000C7
S113153080E0089581E0089581E008950FB6F8945D
S11315400F9280916C0890916D08892B19F58BE7A7
S113155098E00E945D0082E798E00E945D008BE7BE
S113156098E0909371088093700882E798E09093D4
S11315706F0880936E0840E065E085E00E946D038B
S113158090936D0880936C08009721F06BE071E0F4
S11315900E942A050F900FBE0895EF92FF920F93B9
S11315A00E949E0A80916C0890916D08892B91F09D
S11315B00F2EFAE6EF2EF8E0FF2EF02D02E020E0E9
S11315C030E045E550E060E171E089ED9BE00E9488
S11315D0CB0501C080E00F91FF90EF9008959F929A
S11315E0AF92BF92CF92DF92EF92FF920F931F932D
S11315F0CF93DF935C016B01942E790183E190E03A
S11316000E94E700EC01892B79F00E949E0AB982BE
S1131610A882DD86CC869E86F88AEF861A8B098B93
S1131620CE0102960E946B00CE01DF91CF911F91F3
S11316300F91FF90EF90DF90CF90BF90AF909F906D
S113164008950F931F93CF93DF9300D000D01F9280
S1131650CDB7DEB7E0916C08F0916D08309771F169
S1131660D90169835B834A839D838C836630ECF460
S11316700E94610A823061F420E0A801BE016F5F1C
S11316807F4F80916C0890916D080E949A0317C057
S113169020E040E050E0BE016F5F7F4F80916C0816
S11316A090916D080E949A030AC020E0AD01BE012A
S11316B06F5F7F4FCF010E943B0401C080E00F9019
S11316C00F900F900F900F90DF91CF911F910F917A
S11316D00895AF92BF92CF92DF92EF92FF920F9351
S11316E01F93CF93DF936C010E945B077C01809171
S11316F0680890916908E816F90608F048C030C0F7
S11317000580F681E02DA080B180C681D7818E014D
S11317100E5F1F4FC8010E94C100E989FA89CE01FA
S113172009958E858130E1F48C859D858A0D9B1DFC
S1131730A816B90660F49B838A83D987C887B80141
S113174080917008909171080E94900009C000E097
S113175010E020E030E0A50160E0CE010E94210B02
S1131760E0917008F091710880818111C9CF809156
S11317706E0890916F089093710880937008F093AD
S11317806F08E0936E0881E0F601808302C0F601E1
S11317901082F0926908E0926808C701DF91CF9146
S11317A01F910F91FF90EF90DF90CF90BF90AF907B
S11317B00895CF93DF9300D000D000D0CDB7DEB72B
S11317C0CE0101964C0144244394D12CE12CF12CFC
S11317D0582EC92CE0917008F091710880818823FB
S11317E009F4C3C00580F681E02DA080B1800E9479
S11317F05507C4010E94690B8C018981811147C07E
S11318000A151B0598F10E942008E0917008F091D8
S113181071080580F681E02D66807780C301029609
S11318200E94C100D3011E968C911E978130B1F4A1
S11318301C966D917C911D976A0D7B1D9501A801E5
S1131840C3010E946F0A882349F00D2D1E2D2D2DF2
S11318503E2DA5016F2DC3010E94210BD30151968A
S1131860ED91FC915297C301099571C04F2DB501BB
S1131870601B710B80916C0890916D080E94370574
S11318800E942008811163C00E94C90160C00E94A7
S113189020085DC0898188230CF459C0AC80BD80C8
S11318A0F50182859385892B21F0C50102960E945A
S11318B0C100CE0106960E94690BE9810E2FEE0F3E
S11318C0110B220B330B0A30110508F040C0F8014C
S11318D0EC5CFF4F0C941F142A813B81D5011C96AC
S11318E06D917C911D97620F731FAC01C5010E941D
S11318F06F0A882361F1D5015196ED91FC915297BD
S1131900C5010995F5018685813009F54A815B8118
S113191084859585480F591F0D2D1E2D2D2D3E2D87
S11319206F2DC5010E94210B12C06A817B81D501F4
S11319301D967C936E931C97680F791F9C01AC01D4
S1131940C5010E946F0A03C0C5010E941C012F2D0E
S11319504D2D5E2D652D7C2D80916C0890916D0828
S11319600E947504811196CF35CF0E945507C4019A
S11319700E94690B8C018981811189CFE0916E08E5
S1131980F0916F08442D808181114F2DAD2CBE2C18
S11319906ECF3FE721EC93E080918808811107C066
S11319A084B58D7784BD85B5897F85BDF5CF37BD79
S11319B024BD95BDF1CF8091A608811102C02B985A
S11319C008952B9A2A9A2C980895CF93DF93FC01BB
S11319D02081222369F0DC011196E0ECF0E0C6ECF2
S11319E0D0E0908195FFFDCF28832D912111F9CF6F
S11319F0DF91CF91089588E191E00E94E50C109267
S1131A00A508109288081092A6085A9A0E94C90C38
S1131A10EAE7F0E0808180648083808184FFFDCFE9
S1131A20EAE7F0E0808180618083809178006091B2
S1131A30790070E0762F6627680F711D072E000C61
S1131A40880B990B0E94FD120895CF93DF9300D069
S1131A50CDB7DEB711E020E04FEF5FEFBE016F5F5F
S1131A607F4F80919F089091A0080E9475048981FE
S1131A709A81C097992782309105F9F02CF4009748
S1131A8051F0019751F0E7CF8430910539F1F4F02A
S1131A90059769F1E0CF0E94FB0C8BE391E00E9473
S1131AA0E50C81E08093A5085A9880938808809378
S1131AB0A6080E94DB0C0E94C90C8FE591E00E94ED
S1131AC0E50C81E0809388080E94C90C83E891E0CA
S1131AD00E94E50C109288080E94C90C88EA91E0E3
S1131AE00E94E50C1093A6080E94DB0CB4CF89EC8D
S1131AF091E00E94E50C1092A6080E94DB0CABCF8B
S1131B00CF93DF9300D000D0CDB7DEB70F2EFAE726
S1131B10EF2EF12CF02D0F2EF7E8CF2EF02D0CE741
S1131B2010E00F2EF0ECDF2EF02D80E090E00E940C
S1131B3058098091990890919A08009709F441C036
S1131B4020E044E650E060E070E00E9475048130DB
S1131B50C1F53898F701C082F801D0820E94080DBF
S1131B6020E030E040E251E40E948E1320E030E0B7
S1131B704AEB52E40E945A1220E030E048E452E476
S1131B800E94ED1169837A838B839C8320E040E07B
S1131B9050E060E070E08091990890919A080E946A
S1131BA09A0320E030E040EF51E469817A818B812F
S1131BB09C810E948913882314F00E94FB0C1092CC
S1131BC0A50880918F0890919008009709F4ADCFF3
S1131BD020E044E650E0BE016F5F7F4F0E949A030D
S1131BE0A4CFCF93DF9300D000D0CDB7DEB70F2EB4
S1131BF0FAE7EF2EF12CF02D0F2EF7E8CF2EF02D73
S1131C000CE710E00F2EF1E4DF2EF02D80E090E0E1
S1131C100E9458098091990890919A08009779F147
S1131C2020E044E650E060E070E00E9475048130FA
S1131C3031F53998F701C082F801D0820E94080D6D
S1131C4069837A838B839C8320E040E050E060E0EA
S1131C5070E08091990890919A080E949A0320E07C
S1131C6030E048E453E469817A818B819C810E944D
S1131C708913882314F00E94FB0C1092A50880910C
S1131C80A3089091A408009709F220E044E650E0EC
S1131C90BE016F5F7F4F0E949A03B8CF9BB19F70C4
S1131CA09BB99BB1282F207F922B9BB9299A35E0B1
S1131CB03A95F1F700002998EFE8F1E03197F1F750
S1131CC000C000009BB19F709BB92BB1F0E18F9FC6
S1131CD0C0011124822B8BB9299A35E03A95F1F78A
S1131CE0000029988FE891E00197F1F700C0000007
S1131CF0089528980E944E0E0895289A0E944E0E28
S1131D000895CF93DF9300D000D0CDB7DEB790E82D
S1131D10998390EC9A8394E99B8394ED9C83FE01D0
S1131D20E60FF11D81509081890F0E94790E8FE892
S1131D3091E00197F1F700C000000F900F900F9011
S1131D400F90DF91CF910895CF93DF93CDB7DEB796
S1131D50A4970FB6F894DEBF0FBECDBF8E010B5D06
S1131D601F4F0F2EFAE3AF2EF02D0F2EFDE7BF2EDF
S1131D70F02D0F2EFAE0CF2EF02D80918F08909148
S1131D8090080097F1F320E04AE050E0BE016F5F55
S1131D907F4F0E947504813081F761E086E00E94E4
S1131DA0810E20E030E048EC52E469817A818B8135
S1131DB09C810E948E130E94CC122B013C019B013A
S1131DC0369527953695279536952795A5ECB0E257
S1131DD00E942514AC01529542954F7045275F70BF
S1131DE045279A01ADECBCEC0E9425149695879585
S1131DF096958795969587959C01220F331F880F9A
S1131E00991F880F991F880F991F820F931F481BD2
S1131E10590B0F2EF0E39F2EF02D940E892D0E9466
S1131E207D0E92013695279536952795ABE7B4E15B
S1131E300E942514AC01569547959A01ADECBCEC73
S1131E400E942514969587959695879596958795DE
S1131E509C01220F331F880F991F880F991F880F29
S1131E60991F820F931F481B590B0F2EF0E3DF2E8F
S1131E70F02DD40E8D2D0E947D0E8EE20E947D0EDB
S1131E809201ADECBCEC0E9425147C01F694E7941D
S1131E90F694E794F694E79497010E942514969596
S1131EA0879596958795969587959C01220F331F64
S1131EB0880F991F880F991F880F991F820F931FEE
S1131EC09701281B390B0F2EF0E38F2EF02D820E75
S1131ED0882D0E947D0EC701880F991FEE0CFF1CF0
S1131EE0EE0CFF1CEE0CFF1CE80EF91EC2018E194D
S1131EF09F090F2EF0E34F2EF02D480E842D0E94E3
S1131F007D0E8FED0E947D0E80E2EBEEF1E0DE01AE
S1131F10159601900D928A95E1F787E290E00E9470
S1131F2034147C01FE013596DC0181918D93E01718
S1131F30F107D9F7F701A78E90A2D1A28EE282A36E
S1131F4083A244A2B5A2C6A217A28AE090E00E948E
S1131F509F08C7010E94E50C8AE090E00E949F0858
S1131F60C7010E94CC148AE090E00E949F0805CF2C
S1131F70CF93DF93CDB7DEB76C970FB6F894DEBF7F
S1131F800FBECDBF8E01035E1F4F0F2EFAE37F2ECF
S1131F90F02D0F2EFEE28F2EF02D0F2EF0E3BF2E2C
S1131FA0F02D0F2EFDE79F2EF02D0F2EFAE06F2E51
S1131FB0F02D80918F08909190080097F1F320E024
S1131FC04AE050E0BE016F5F7F4F0E94750481308C
S1131FD081F762E086E00E94810E6091950870911D
S1131FE0960880919708909198080E94CC121B0142
S1131FF02C019B013695279536952795ABE7B4E1DF
S11320000E942514AC01569547959A01ADECBCECA1
S11320100E9425149695879596958795969587950C
S11320209C01220F331F880F991F880F991F880F57
S1132030991F820F931F481B590BA42E0F2EF0E3F8
S1132040DF2EF02DD40E8D2D0E947D0E9101ADEC6E
S1132050BCEC0E9425147C01F694E794F694E79472
S1132060F694E79497010E94251496958795969582
S11320708795969587959C01220F331F880F991F8A
S1132080880F991F880F991F820F931F9701281B90
S1132090390B0F2EF0E3CF2EF02DC20E8C2D0E94A3
S11320A07D0EC701880F991FEE0CFF1CEE0CFF1C60
S11320B0EE0CFF1CE80EF91EC1018E199F090F2EAC
S11320C0F0E32F2EF02D280E822D0E947D0E88E144
S11320D0EBE0F2E0DE01159601900D928A95E1F7AE
S11320E080E290E00E9434147C01FE013596DC010C
S11320F081918D93E017F107D9F7F701778AA11041
S113210004C0C08EE7E1F0E005C0F701D08EC18EB7
S1132110E8E1F0E0EE0DFF1D22828382B482B582F5
S11321209682678210868AE090E00E949F08C70129
S11321300E94E50C8AE090E00E949F08C7010E947B
S1132140CC148AE090E00E949F0833CF8091A108CC
S11321509091A2080E94D80680919D0890919E08B3
S11321600E94D806089581E08093A508809388088A
S11321708093A6088AB1806F8AB984B1836084B9D8
S113218029988FE39FE10197F1F700C0000083E3F2
S11321900E94790E82E30E94790E88E20E94790EF1
S11321A08CE00E94790E86E00E94790E81E00E9404
S11321B0790E8FE89AE10197F1F700C00000C0E0C2
S11321C084E50E947D0ECF5FEC2FF0E0ED5DFD4FC6
S11321D080818111F6CF62E081E00E94810EC0E02F
S11321E081E40E947D0ECF5FEC2FF0E0E75DFD4FB0
S11321F080818111F6CF1092C50087E68093C400D8
S113220088E98093C10086E08093C20017B88FEFFD
S11322108AB9539A84B18C6184B906EA10E120E04A
S113222030E041E060E170E08EE292E00E94EF0A6B
S113223090938A0880938908892B71F00E945B0728
S113224000E010E020E030E0AC0161E0809189081A
S113225090918A080E94210B43E060E081E00E9493
S11322606D0390939A088093990820E040E050E031
S113227060E070E00E949A0340E062E082E00E9425
S11322806D039093A00880939F0840E064E082E08F
S11322900E946D039093A4088093A30840E064E037
S11322A082E00E946D039093900880938F080F2E14
S11322B0FBE9EF2EF8E0FF2EF02D00E020E030E007
S11322C045E550E064E372E085E29DE00E94CB05C1
S11322D00F2EF1EAEF2EF8E0FF2EF02D20E030E093
S11322E045E550E066E472E080E89DE00E94CB059D
S11322F00F2EF1E9EF2EF8E0FF2EF02D20E030E074
S113230045E550E06AE572E084EA9EE00E94CB0570
S11323100F2EF1EAEF2EF8E0FF2EF02D20E030E052
S113232045E550E06EE672E081EF9DE00E94CB054A
S11323300F2EF3E9EF2EF8E0FF2EF02D20E030E031
S113234045E550E06AE772E088EB9FE00E94CB0528
S113235078940E942707FFCF08951F920F920FB61B
S11323600F9211242F933F934F935F936F937F9317
S11323708F939F93AF93BF93EF93FF93CF93DF9389
S113238000D0CDB7DEB78091C60089831A8220E0E1
S1132390AE014E5F5F4FBE016F5F7F4F80919F081C
S11323A09091A0080E943B048A8181110E94C90176
S11323B00F900F90DF91CF91FF91EF91BF91AF916B
S11323C09F918F917F916F915F914F913F912F9149
S11323D00F900FBE0F901F9018955058BB27AA2737
S11323E00E9405120C944F130E94411338F00E946E
S11323F0481320F039F49F3F19F426F40C943E134B
S11324000EF4E095E7FB0C943813E92F0E94601357
S113241058F3BA17620773078407950720F079F415
S1132420A6F50C9482130EF4E0950B2EBA2FA02D72
S11324300B01B90190010C01CA01A0011124FF276D
S1132440591B99F0593F50F4503E68F11A16F04068
S1132450A22F232F342F4427585FF3CF4695379567
S11324602795A795F0405395C9F77EF41F16BA0B2C
S1132470620B730B840BBAF09150A1F0FF0FBB1FDA
S1132480661F771F881FC2F70EC0BA0F621F731F23
S1132490841F48F4879577956795B795F7959E3F80
S11324A008F0B0CF9395880F08F09927EE0F979511
S11324B0879508950E946E120C944F130E9448133E
S11324C058F00E94411340F029F45F3F29F00C9426
S11324D0381351110C9483130C943E130E9460130F
S11324E068F39923B1F3552391F3951B550BBB273F
S11324F0AA2762177307840738F09F5F5F4F220F84
S1132500331F441FAA1FA9F335D00E2E3AF0E0E87A
S113251032D091505040E695001CCAF72BD0FE2FC4
S113252029D0660F771F881FBB1F26173707480758
S1132530AB07B0E809F0BB0B802DBF01FF27935810
S11325405F4F3AF09E3F510578F00C9438130C9489
S113255083135F3FE4F3983ED4F3869577956795AC
S1132560B795F7959F5FC9F7880F911D9695879545
S113257097F90895E1E0660F771F881FBB1F621764
S113258073078407BA0720F0621B730B840BBA0B22
S1132590EE1F88F7E09508950E94681388F09F570E
S11325A098F0B92F9927B751B0F0E1F0660F771F73
S11325B0881F991F1AF0BA95C9F714C0B13091F069
S11325C00E948213B1E008950C948213672F782F30
S11325D08827B85F39F0B93FCCF38695779567952E
S11325E0B395D9F73EF490958095709561957F4F9A
S11325F08F4F9F4F0895E89409C097FB3EF4909540
S11326008095709561957F4F8F4F9F4F9923A9F0C7
S1132610F92F96E9BB279395F69587957795679556
S1132620B795F111F8CFFAF4BB0F11F460FF1BC09A
S11326306F5F7F4F8F4F9F4F16C0882311F096E92D
S113264011C0772321F09EE8872F762F05C06623DB
S113265071F096E8862F70E060E02AF09A95660F94
S1132660771F881FDAF7880F9695879597F908954D
S113267097F99F6780E870E060E008959FEF80EC31
S1132680089500240A9416161706180609060895D4
S113269000240A9412161306140605060895092E3A
S11326A00394000C11F4882352F0BB0F40F4BF2BA9
S11326B011F460FF04C06F5F7F4F8F4F9F4F0895E9
S11326C057FD9058440F551F59F05F3F71F04795DF
S11326D0880F97FB991F61F09F3F79F087950895C4
S11326E0121613061406551FF2CF4695F1DF08C0E3
S11326F0161617061806991FF1CF86957105610500
S113270008940895E894BB2766277727CB0197F9A7
S113271008950E94FB1308F48FEF08950E94A113FB
S11327200C944F130E94411338F00E94481320F078
S1132730952311F00C9438130C943E1311240C942B
S113274083130E94601370F3959FC1F3950F50E0BB
S1132750551F629FF001729FBB27F00DB11D639F4F
S1132760AA27F00DB11DAA1F649F6627B00DA11DF5
S1132770661F829F2227B00DA11D621F739FB00D9B
S1132780A11D621F839FA00D611D221F749F33270B
S1132790A00D611D231F849F600D211D822F762FA4
S11327A06A2F11249F5750409AF0F1F088234AF081
S11327B0EE0FFF1FBB1F661F771F881F91505040ED
S11327C0A9F79E3F510580F00C9438130C948313A1
S11327D05F3FE4F3983ED4F3869577956795B79574
S11327E0F795E7959F5FC1F7FE2B880F911D96958E
S11327F0879597F90895990F0008550FAA0BE0E8FB
S1132800FEEF16161706E807F907C0F012161306AE
S1132810E407F50798F0621B730B840B950B39F4EE
S11328200A2661F0232B242B252B21F408950A2654
S113283009F4A140A6958FEF811D811D0895EE0F27
S1132840FF1F0590F491E02D0994A29FB001B39F5E
S1132850C001A39F700D811D1124911DB29F700DA5
S1132860811D1124911D08950F931F93CF93DF931E
S11328708230910510F482E090E0E091A908F09193
S1132880AA0820E030E0A0E0B0E0309719F14081E0
S113289051810281138148175907C8F0841795079D
S11328A069F4109731F012960C93129713961C93B7
S11328B027C00093A9081093AA0822C02115310546
S11328C019F04217530718F49A01BD01EF01DF0113
S11328D0F801DBCF21153105F9F0281B390B243021
S11328E0310580F48A819B816115710521F0FB011A
S11328F09383828304C09093AA088093A908FE015D
S1132900329644C0FE01E20FF31F8193919322504B
S11329103109398328833AC02091A7083091A80847
S1132920232B41F420910201309103013093A80834
S11329302093A70820910001309101012115310550
S113294041F42DB73EB74091040150910501241B79
S1132950350BE091A708F091A808E217F307A0F45B
S11329602E1B3F0B2817390778F0AC014E5F5F4FE1
S11329702417350748F04E0F5F1F5093A808409363
S1132980A7088193919302C0E0E0F0E0CF01DF91CA
S1132990CF911F910F910895CF93DF93009709F47E
S11329A081C0FC01329713821282A091A908B091D0
S11329B0AA08109781F420813181820F931F2091FE
S11329C0A7083091A8082817390751F5F093A808EB
S11329D0E093A70867C0ED0120E030E0CE17DF07E1
S11329E040F44A815B819E0141155105F1F0EA01F1
S11329F0F5CFD383C28340815181840F951FC817BB
S1132A00D90759F488819981840F951F029691837F
S1132A1080838A819B81938382832115310529F4E4
S1132A20F093AA08E093A9083DC0E901FB83EA8377
S1132A3049915991C40FD51FEC17FD0761F48081AA
S1132A409181840F951F0296E9019983888382817D
S1132A5093819B838A83E0E0F0E012968D919C91B0
S1132A601397009719F0FD01DC01F7CF8D919C912C
S1132A7011979D012E5F3F4F820F931F2091A7084E
S1132A803091A8082817390769F4309729F410926F
S1132A90AA081092A90802C013821282B093A8084F
S1132AA0A093A708DF91CF910895FB01DC0102C038
S1132AB001900D9241505040D8F70895F894FFCFFB
S1132AC00000AB08200049444C4500546D7251008D
S1132AD0546D7220537663007B2261637475617454
S1132AE06F72223A22616C61726D222C2276616CC3
S1132AF07565223A226F6E227D0A007B226163741F
S1132B007561746F72223A22616C61726D222C229B
S1132B1076616C7565223A226F6666227D0A007BB7
S1132B20226163747561746F72223A2262757A7AD3
S1132B306572222C2276616C7565223A226F6E22B0
S1132B407D0A007B226163747561746F72223A227C
S1132B5062757A7A6572222C2276616C7565223AE6
S1132B60226F6666227D0A007B226163747561743C
S1132B706F72223A2266616E222C2276616C756530
S1132B80223A226F6E227D0A007B22616374756192
S1132B90746F72223A2266616E222C2276616C7501
S1132BA065223A226F6666227D0A007B2273656E77
S1132BB0736F72223A2274656D70657261747572F6
S1132BC065222C2276616C756522007B2273656E0A
S1132BD0736F72223A22616972222C2276616C75BB
S1132BE065220054656D703A004169723A00546977
S1132BF06D65720073657269616C46726F6D4953DD
S1132C00525461736B0074656D7065726174757292
S1132C1065526561645461736B0074656D706572AF
S1132C20617475726553656E645461736B00616998
S1132C3072526561645461736B0061697253656EAD
S1092C40645461736B0093
S9030000FC
